{
  "_format": "hh-sol-artifact-1",
  "contractName": "StakingRewards",
  "sourceName": "contracts/StakingRewards.sol",
  "abi": [
    {
      "inputs": [
        {
          "internalType": "address",
          "name": "_owner",
          "type": "address"
        },
        {
          "internalType": "address",
          "name": "_rewardsDistribution",
          "type": "address"
        },
        {
          "internalType": "address",
          "name": "_rewardsToken",
          "type": "address"
        },
        {
          "internalType": "address",
          "name": "_stakingToken",
          "type": "address"
        }
      ],
      "stateMutability": "nonpayable",
      "type": "constructor"
    },
    {
      "anonymous": false,
      "inputs": [
        {
          "indexed": false,
          "internalType": "address",
          "name": "oldOwner",
          "type": "address"
        },
        {
          "indexed": false,
          "internalType": "address",
          "name": "newOwner",
          "type": "address"
        }
      ],
      "name": "OwnerChanged",
      "type": "event"
    },
    {
      "anonymous": false,
      "inputs": [
        {
          "indexed": false,
          "internalType": "address",
          "name": "newOwner",
          "type": "address"
        }
      ],
      "name": "OwnerNominated",
      "type": "event"
    },
    {
      "anonymous": false,
      "inputs": [
        {
          "indexed": false,
          "internalType": "bool",
          "name": "isPaused",
          "type": "bool"
        }
      ],
      "name": "PauseChanged",
      "type": "event"
    },
    {
      "anonymous": false,
      "inputs": [
        {
          "indexed": false,
          "internalType": "address",
          "name": "token",
          "type": "address"
        },
        {
          "indexed": false,
          "internalType": "uint256",
          "name": "amount",
          "type": "uint256"
        }
      ],
      "name": "Recovered",
      "type": "event"
    },
    {
      "anonymous": false,
      "inputs": [
        {
          "indexed": false,
          "internalType": "uint256",
          "name": "reward",
          "type": "uint256"
        }
      ],
      "name": "RewardAdded",
      "type": "event"
    },
    {
      "anonymous": false,
      "inputs": [
        {
          "indexed": true,
          "internalType": "address",
          "name": "user",
          "type": "address"
        },
        {
          "indexed": false,
          "internalType": "uint256",
          "name": "reward",
          "type": "uint256"
        }
      ],
      "name": "RewardPaid",
      "type": "event"
    },
    {
      "anonymous": false,
      "inputs": [
        {
          "indexed": false,
          "internalType": "uint256",
          "name": "newDuration",
          "type": "uint256"
        }
      ],
      "name": "RewardsDurationUpdated",
      "type": "event"
    },
    {
      "anonymous": false,
      "inputs": [
        {
          "indexed": true,
          "internalType": "address",
          "name": "user",
          "type": "address"
        },
        {
          "indexed": false,
          "internalType": "uint256",
          "name": "amount",
          "type": "uint256"
        }
      ],
      "name": "Staked",
      "type": "event"
    },
    {
      "anonymous": false,
      "inputs": [
        {
          "indexed": true,
          "internalType": "address",
          "name": "user",
          "type": "address"
        },
        {
          "indexed": false,
          "internalType": "uint256",
          "name": "amount",
          "type": "uint256"
        }
      ],
      "name": "Withdrawn",
      "type": "event"
    },
    {
      "inputs": [],
      "name": "acceptOwnership",
      "outputs": [],
      "stateMutability": "nonpayable",
      "type": "function"
    },
    {
      "inputs": [
        {
          "internalType": "address",
          "name": "account",
          "type": "address"
        }
      ],
      "name": "balanceOf",
      "outputs": [
        {
          "internalType": "uint256",
          "name": "",
          "type": "uint256"
        }
      ],
      "stateMutability": "view",
      "type": "function"
    },
    {
      "inputs": [
        {
          "internalType": "address",
          "name": "account",
          "type": "address"
        }
      ],
      "name": "earned",
      "outputs": [
        {
          "internalType": "uint256",
          "name": "",
          "type": "uint256"
        }
      ],
      "stateMutability": "view",
      "type": "function"
    },
    {
      "inputs": [],
      "name": "exit",
      "outputs": [],
      "stateMutability": "nonpayable",
      "type": "function"
    },
    {
      "inputs": [],
      "name": "getReward",
      "outputs": [],
      "stateMutability": "nonpayable",
      "type": "function"
    },
    {
      "inputs": [],
      "name": "getRewardForDuration",
      "outputs": [
        {
          "internalType": "uint256",
          "name": "",
          "type": "uint256"
        }
      ],
      "stateMutability": "view",
      "type": "function"
    },
    {
      "inputs": [],
      "name": "lastPauseTime",
      "outputs": [
        {
          "internalType": "uint256",
          "name": "",
          "type": "uint256"
        }
      ],
      "stateMutability": "view",
      "type": "function"
    },
    {
      "inputs": [],
      "name": "lastTimeRewardApplicable",
      "outputs": [
        {
          "internalType": "uint256",
          "name": "",
          "type": "uint256"
        }
      ],
      "stateMutability": "view",
      "type": "function"
    },
    {
      "inputs": [],
      "name": "lastUpdateTime",
      "outputs": [
        {
          "internalType": "uint256",
          "name": "",
          "type": "uint256"
        }
      ],
      "stateMutability": "view",
      "type": "function"
    },
    {
      "inputs": [
        {
          "internalType": "address",
          "name": "_owner",
          "type": "address"
        }
      ],
      "name": "nominateNewOwner",
      "outputs": [],
      "stateMutability": "nonpayable",
      "type": "function"
    },
    {
      "inputs": [],
      "name": "nominatedOwner",
      "outputs": [
        {
          "internalType": "address",
          "name": "",
          "type": "address"
        }
      ],
      "stateMutability": "view",
      "type": "function"
    },
    {
      "inputs": [
        {
          "internalType": "uint256",
          "name": "reward",
          "type": "uint256"
        }
      ],
      "name": "notifyRewardAmount",
      "outputs": [],
      "stateMutability": "nonpayable",
      "type": "function"
    },
    {
      "inputs": [],
      "name": "owner",
      "outputs": [
        {
          "internalType": "address",
          "name": "",
          "type": "address"
        }
      ],
      "stateMutability": "view",
      "type": "function"
    },
    {
      "inputs": [],
      "name": "paused",
      "outputs": [
        {
          "internalType": "bool",
          "name": "",
          "type": "bool"
        }
      ],
      "stateMutability": "view",
      "type": "function"
    },
    {
      "inputs": [],
      "name": "periodFinish",
      "outputs": [
        {
          "internalType": "uint256",
          "name": "",
          "type": "uint256"
        }
      ],
      "stateMutability": "view",
      "type": "function"
    },
    {
      "inputs": [
        {
          "internalType": "address",
          "name": "tokenAddress",
          "type": "address"
        },
        {
          "internalType": "uint256",
          "name": "tokenAmount",
          "type": "uint256"
        }
      ],
      "name": "recoverERC20",
      "outputs": [],
      "stateMutability": "nonpayable",
      "type": "function"
    },
    {
      "inputs": [],
      "name": "rewardPerToken",
      "outputs": [
        {
          "internalType": "uint256",
          "name": "",
          "type": "uint256"
        }
      ],
      "stateMutability": "view",
      "type": "function"
    },
    {
      "inputs": [],
      "name": "rewardPerTokenStored",
      "outputs": [
        {
          "internalType": "uint256",
          "name": "",
          "type": "uint256"
        }
      ],
      "stateMutability": "view",
      "type": "function"
    },
    {
      "inputs": [],
      "name": "rewardRate",
      "outputs": [
        {
          "internalType": "uint256",
          "name": "",
          "type": "uint256"
        }
      ],
      "stateMutability": "view",
      "type": "function"
    },
    {
      "inputs": [
        {
          "internalType": "address",
          "name": "",
          "type": "address"
        }
      ],
      "name": "rewards",
      "outputs": [
        {
          "internalType": "uint256",
          "name": "",
          "type": "uint256"
        }
      ],
      "stateMutability": "view",
      "type": "function"
    },
    {
      "inputs": [],
      "name": "rewardsDistribution",
      "outputs": [
        {
          "internalType": "address",
          "name": "",
          "type": "address"
        }
      ],
      "stateMutability": "view",
      "type": "function"
    },
    {
      "inputs": [],
      "name": "rewardsDuration",
      "outputs": [
        {
          "internalType": "uint256",
          "name": "",
          "type": "uint256"
        }
      ],
      "stateMutability": "view",
      "type": "function"
    },
    {
      "inputs": [],
      "name": "rewardsToken",
      "outputs": [
        {
          "internalType": "contract IERC20",
          "name": "",
          "type": "address"
        }
      ],
      "stateMutability": "view",
      "type": "function"
    },
    {
      "inputs": [
        {
          "internalType": "bool",
          "name": "_paused",
          "type": "bool"
        }
      ],
      "name": "setPaused",
      "outputs": [],
      "stateMutability": "nonpayable",
      "type": "function"
    },
    {
      "inputs": [
        {
          "internalType": "address",
          "name": "_rewardsDistribution",
          "type": "address"
        }
      ],
      "name": "setRewardsDistribution",
      "outputs": [],
      "stateMutability": "nonpayable",
      "type": "function"
    },
    {
      "inputs": [
        {
          "internalType": "uint256",
          "name": "_rewardsDuration",
          "type": "uint256"
        }
      ],
      "name": "setRewardsDuration",
      "outputs": [],
      "stateMutability": "nonpayable",
      "type": "function"
    },
    {
      "inputs": [
        {
          "internalType": "uint256",
          "name": "amount",
          "type": "uint256"
        }
      ],
      "name": "stake",
      "outputs": [],
      "stateMutability": "nonpayable",
      "type": "function"
    },
    {
      "inputs": [],
      "name": "stakingToken",
      "outputs": [
        {
          "internalType": "contract IERC20",
          "name": "",
          "type": "address"
        }
      ],
      "stateMutability": "view",
      "type": "function"
    },
    {
      "inputs": [],
      "name": "totalSupply",
      "outputs": [
        {
          "internalType": "uint256",
          "name": "",
          "type": "uint256"
        }
      ],
      "stateMutability": "view",
      "type": "function"
    },
    {
      "inputs": [
        {
          "internalType": "uint256",
          "name": "timestamp",
          "type": "uint256"
        }
      ],
      "name": "updatePeriodFinish",
      "outputs": [],
      "stateMutability": "nonpayable",
      "type": "function"
    },
    {
      "inputs": [
        {
          "internalType": "address",
          "name": "",
          "type": "address"
        }
      ],
      "name": "userRewardPerTokenPaid",
      "outputs": [
        {
          "internalType": "uint256",
          "name": "",
          "type": "uint256"
        }
      ],
      "stateMutability": "view",
      "type": "function"
    },
    {
      "inputs": [
        {
          "internalType": "uint256",
          "name": "amount",
          "type": "uint256"
        }
      ],
      "name": "withdraw",
      "outputs": [],
      "stateMutability": "nonpayable",
      "type": "function"
    }
  ],
  "bytecode": "0x6080604052636092b71a600755600060085562093a806009553480156200002557600080fd5b506040516200328b3803806200328b83398181016040528101906200004b9190620002bb565b83600073ffffffffffffffffffffffffffffffffffffffff168173ffffffffffffffffffffffffffffffffffffffff161415620000bf576040517f08c379a0000000000000000000000000000000000000000000000000000000008152600401620000b6906200040b565b60405180910390fd5b806000806101000a81548173ffffffffffffffffffffffffffffffffffffffff021916908373ffffffffffffffffffffffffffffffffffffffff1602179055507fb532073b38c83145e3e5135377a08bf9aab55bc0fd7c1179cd4fb995d2a5159c60008260405162000133929190620003bc565b60405180910390a1506001600381905550600073ffffffffffffffffffffffffffffffffffffffff1660008054906101000a900473ffffffffffffffffffffffffffffffffffffffff1673ffffffffffffffffffffffffffffffffffffffff161415620001d7576040517f08c379a0000000000000000000000000000000000000000000000000000000008152600401620001ce90620003e9565b60405180910390fd5b81600560016101000a81548173ffffffffffffffffffffffffffffffffffffffff021916908373ffffffffffffffffffffffffffffffffffffffff16021790555080600660006101000a81548173ffffffffffffffffffffffffffffffffffffffff021916908373ffffffffffffffffffffffffffffffffffffffff16021790555082600260006101000a81548173ffffffffffffffffffffffffffffffffffffffff021916908373ffffffffffffffffffffffffffffffffffffffff160217905550505050506200048c565b600081519050620002b58162000472565b92915050565b60008060008060808587031215620002d257600080fd5b6000620002e287828801620002a4565b9450506020620002f587828801620002a4565b93505060406200030887828801620002a4565b92505060606200031b87828801620002a4565b91505092959194509250565b62000332816200043e565b82525050565b6000620003476011836200042d565b91507f4f776e6572206d757374206265207365740000000000000000000000000000006000830152602082019050919050565b6000620003896019836200042d565b91507f4f776e657220616464726573732063616e6e6f742062652030000000000000006000830152602082019050919050565b6000604082019050620003d3600083018562000327565b620003e2602083018462000327565b9392505050565b60006020820190508181036000830152620004048162000338565b9050919050565b6000602082019050818103600083015262000426816200037a565b9050919050565b600082825260208201905092915050565b60006200044b8262000452565b9050919050565b600073ffffffffffffffffffffffffffffffffffffffff82169050919050565b6200047d816200043e565b81146200048957600080fd5b50565b612def806200049c6000396000f3fe608060405234801561001057600080fd5b50600436106101ef5760003560e01c806372f702f31161010f578063a694fc3a116100a2578063d1af0c7d11610071578063d1af0c7d1461054a578063df136d6514610568578063e9fad8ee14610586578063ebe2b12b14610590576101ef565b8063a694fc3a146104d6578063c8f33c91146104f2578063cc1a378f14610510578063cd3daf9d1461052c576101ef565b80638980f11f116100de5780638980f11f1461044e5780638b8763471461046a5780638da5cb5b1461049a57806391b4ded9146104b8576101ef565b806372f702f3146103ea57806379ba5097146104085780637b0a47ee1461041257806380faa57d14610430576101ef565b8063386a95251161018757806353a47bb71161015657806353a47bb714610362578063556f6e6b146103805780635c975abb1461039c57806370a08231146103ba576101ef565b8063386a9525146103005780633c6b16ab1461031e5780633d18b9121461033a5780633fc6df6e14610344576101ef565b806318160ddd116101c357806318160ddd1461028c57806319762143146102aa5780631c1f78eb146102c65780632e1a7d4d146102e4576101ef565b80628cc262146101f45780630700037d146102245780631627540c1461025457806316c38b3c14610270575b600080fd5b61020e600480360381019061020991906121a5565b6105ae565b60405161021b9190612acd565b60405180910390f35b61023e600480360381019061023991906121a5565b6106b0565b60405161024b9190612acd565b60405180910390f35b61026e600480360381019061026991906121a5565b6106c8565b005b61028a6004803603810190610285919061220a565b61074b565b005b6102946107f4565b6040516102a19190612acd565b60405180910390f35b6102c460048036038101906102bf91906121a5565b6107fe565b005b6102ce61084a565b6040516102db9190612acd565b60405180910390f35b6102fe60048036038101906102f9919061225c565b610861565b005b610308610aec565b6040516103159190612acd565b60405180910390f35b6103386004803603810190610333919061225c565b610af2565b005b610342610e77565b005b61034c61126e565b6040516103599190612801565b60405180910390f35b61036a611294565b6040516103779190612801565b60405180910390f35b61039a6004803603810190610395919061225c565b6112ba565b005b6103a46113b2565b6040516103b191906128a5565b60405180910390f35b6103d460048036038101906103cf91906121a5565b6113c5565b6040516103e19190612acd565b60405180910390f35b6103f261140e565b6040516103ff91906128c0565b60405180910390f35b610410611434565b005b61041a6115e5565b6040516104279190612acd565b60405180910390f35b6104386115eb565b6040516104459190612acd565b60405180910390f35b610468600480360381019061046391906121ce565b611608565b005b610484600480360381019061047f91906121a5565b611729565b6040516104919190612acd565b60405180910390f35b6104a2611741565b6040516104af9190612801565b60405180910390f35b6104c0611765565b6040516104cd9190612acd565b60405180910390f35b6104f060048036038101906104eb919061225c565b61176b565b005b6104fa611a48565b6040516105079190612acd565b60405180910390f35b61052a6004803603810190610525919061225c565b611a4e565b005b610534611add565b6040516105419190612acd565b60405180910390f35b610552611b48565b60405161055f91906128c0565b60405180910390f35b610570611b6e565b60405161057d9190612acd565b60405180910390f35b61058e611b74565b005b610598611bc6565b6040516105a59190612acd565b60405180910390f35b6000600d60008373ffffffffffffffffffffffffffffffffffffffff1673ffffffffffffffffffffffffffffffffffffffff16815260200190815260200160002054670de0b6b3a7640000600c60008573ffffffffffffffffffffffffffffffffffffffff1673ffffffffffffffffffffffffffffffffffffffff16815260200190815260200160002054610641611add565b61064b9190612c32565b6106559190612ba7565b600f60008573ffffffffffffffffffffffffffffffffffffffff1673ffffffffffffffffffffffffffffffffffffffff1681526020019081526020016000205461069f9190612bd8565b6106a99190612b51565b9050919050565b600d6020528060005260406000206000915090505481565b6106d0611bcc565b80600160006101000a81548173ffffffffffffffffffffffffffffffffffffffff021916908373ffffffffffffffffffffffffffffffffffffffff1602179055507f906a1c6bd7e3091ea86693dd029a831c19049ce77f1dce2ce0bab1cacbabce22816040516107409190612801565b60405180910390a150565b610753611bcc565b600560009054906101000a900460ff1615158115151415610773576107f1565b80600560006101000a81548160ff021916908315150217905550600560009054906101000a900460ff16156107aa57426004819055505b7f8fb6c181ee25a520cf3dd6565006ef91229fcfe5a989566c2a3b8c115570cec5600560009054906101000a900460ff166040516107e891906128a5565b60405180910390a15b50565b6000600e54905090565b610806611bcc565b80600260006101000a81548173ffffffffffffffffffffffffffffffffffffffff021916908373ffffffffffffffffffffffffffffffffffffffff16021790555050565b600060095460085461085c9190612bd8565b905090565b600260035414156108a7576040517f08c379a000000000000000000000000000000000000000000000000000000000815260040161089e90612a8d565b60405180910390fd5b6002600381905550336108b8611add565b600b819055506108c66115eb565b600a81905550600073ffffffffffffffffffffffffffffffffffffffff168173ffffffffffffffffffffffffffffffffffffffff161461099357610909816105ae565b600d60008373ffffffffffffffffffffffffffffffffffffffff1673ffffffffffffffffffffffffffffffffffffffff16815260200190815260200160002081905550600b54600c60008373ffffffffffffffffffffffffffffffffffffffff1673ffffffffffffffffffffffffffffffffffffffff168152602001908152602001600020819055505b600082116109d6576040517f08c379a00000000000000000000000000000000000000000000000000000000081526004016109cd906129cd565b60405180910390fd5b81600e60008282546109e89190612c32565b9250508190555081600f60003373ffffffffffffffffffffffffffffffffffffffff1673ffffffffffffffffffffffffffffffffffffffff1681526020019081526020016000206000828254610a3e9190612c32565b92505081905550610a923383600660009054906101000a900473ffffffffffffffffffffffffffffffffffffffff1673ffffffffffffffffffffffffffffffffffffffff16611c5c9092919063ffffffff16565b3373ffffffffffffffffffffffffffffffffffffffff167f7084f5476618d8e60b11ef0d7d3f06914655adb8793e28ff7f018d4c76d505d583604051610ad89190612acd565b60405180910390a250600160038190555050565b60095481565b600260009054906101000a900473ffffffffffffffffffffffffffffffffffffffff1673ffffffffffffffffffffffffffffffffffffffff163373ffffffffffffffffffffffffffffffffffffffff1614610b82576040517f08c379a0000000000000000000000000000000000000000000000000000000008152600401610b7990612a4d565b60405180910390fd5b6000610b8c611add565b600b81905550610b9a6115eb565b600a81905550600073ffffffffffffffffffffffffffffffffffffffff168173ffffffffffffffffffffffffffffffffffffffff1614610c6757610bdd816105ae565b600d60008373ffffffffffffffffffffffffffffffffffffffff1673ffffffffffffffffffffffffffffffffffffffff16815260200190815260200160002081905550600b54600c60008373ffffffffffffffffffffffffffffffffffffffff1673ffffffffffffffffffffffffffffffffffffffff168152602001908152602001600020819055505b6007544210610c895760095482610c7e9190612ba7565b600881905550610ccf565b600042600754610c999190612c32565b9050600060085482610cab9190612bd8565b90506009548185610cbc9190612b51565b610cc69190612ba7565b60088190555050505b610d106040518060400160405280600a81526020017f7265776172645261746500000000000000000000000000000000000000000000815250600854611ce2565b6000600560019054906101000a900473ffffffffffffffffffffffffffffffffffffffff1673ffffffffffffffffffffffffffffffffffffffff166370a08231306040518263ffffffff1660e01b8152600401610d6d9190612801565b60206040518083038186803b158015610d8557600080fd5b505afa158015610d99573d6000803e3d6000fd5b505050506040513d601f19601f82011682018060405250810190610dbd9190612285565b9050610dce60085482600954611d7e565b60095481610ddc9190612ba7565b6008541115610e20576040517f08c379a0000000000000000000000000000000000000000000000000000000008152600401610e17906129ed565b60405180910390fd5b42600a8190555060095442610e359190612b51565b6007819055507fde88a922e0d3b88b24e9623efeb464919c6bf9f66857a65e2bfcf2ce87a9433d83604051610e6a9190612acd565b60405180910390a1505050565b60026003541415610ebd576040517f08c379a0000000000000000000000000000000000000000000000000000000008152600401610eb490612a8d565b60405180910390fd5b600260038190555033610ece611add565b600b81905550610edc6115eb565b600a81905550600073ffffffffffffffffffffffffffffffffffffffff168173ffffffffffffffffffffffffffffffffffffffff1614610fa957610f1f816105ae565b600d60008373ffffffffffffffffffffffffffffffffffffffff1673ffffffffffffffffffffffffffffffffffffffff16815260200190815260200160002081905550600b54600c60008373ffffffffffffffffffffffffffffffffffffffff1673ffffffffffffffffffffffffffffffffffffffff168152602001908152602001600020819055505b6000600d60003373ffffffffffffffffffffffffffffffffffffffff1673ffffffffffffffffffffffffffffffffffffffff1681526020019081526020016000205490506000811115611262576000600d60003373ffffffffffffffffffffffffffffffffffffffff1673ffffffffffffffffffffffffffffffffffffffff1681526020019081526020016000208190555061107a6040518060400160405280600681526020017f526577617264000000000000000000000000000000000000000000000000000081525082611ce2565b6111636040518060400160405280600e81526020017f5265776172642042616c616e6365000000000000000000000000000000000000815250600560019054906101000a900473ffffffffffffffffffffffffffffffffffffffff1673ffffffffffffffffffffffffffffffffffffffff166370a08231306040518263ffffffff1660e01b815260040161110e9190612801565b60206040518083038186803b15801561112657600080fd5b505afa15801561113a573d6000803e3d6000fd5b505050506040513d601f19601f8201168201806040525081019061115e9190612285565b611ce2565b600560019054906101000a900473ffffffffffffffffffffffffffffffffffffffff1673ffffffffffffffffffffffffffffffffffffffff1663a9059cbb33836040518363ffffffff1660e01b81526004016111c092919061287c565b602060405180830381600087803b1580156111da57600080fd5b505af11580156111ee573d6000803e3d6000fd5b505050506040513d601f19601f820116820180604052508101906112129190612233565b503373ffffffffffffffffffffffffffffffffffffffff167fe2403640ba68fed3a2f88b7557551d1993f84b99bb10ff833f0cf8db0c5e0486826040516112599190612acd565b60405180910390a25b50506001600381905550565b600260009054906101000a900473ffffffffffffffffffffffffffffffffffffffff1681565b600160009054906101000a900473ffffffffffffffffffffffffffffffffffffffff1681565b6112c2611bcc565b60006112cc611add565b600b819055506112da6115eb565b600a81905550600073ffffffffffffffffffffffffffffffffffffffff168173ffffffffffffffffffffffffffffffffffffffff16146113a75761131d816105ae565b600d60008373ffffffffffffffffffffffffffffffffffffffff1673ffffffffffffffffffffffffffffffffffffffff16815260200190815260200160002081905550600b54600c60008373ffffffffffffffffffffffffffffffffffffffff1673ffffffffffffffffffffffffffffffffffffffff168152602001908152602001600020819055505b816007819055505050565b600560009054906101000a900460ff1681565b6000600f60008373ffffffffffffffffffffffffffffffffffffffff1673ffffffffffffffffffffffffffffffffffffffff168152602001908152602001600020549050919050565b600660009054906101000a900473ffffffffffffffffffffffffffffffffffffffff1681565b600160009054906101000a900473ffffffffffffffffffffffffffffffffffffffff1673ffffffffffffffffffffffffffffffffffffffff163373ffffffffffffffffffffffffffffffffffffffff16146114c4576040517f08c379a00000000000000000000000000000000000000000000000000000000081526004016114bb9061294d565b60405180910390fd5b7fb532073b38c83145e3e5135377a08bf9aab55bc0fd7c1179cd4fb995d2a5159c60008054906101000a900473ffffffffffffffffffffffffffffffffffffffff16600160009054906101000a900473ffffffffffffffffffffffffffffffffffffffff1660405161153792919061281c565b60405180910390a1600160009054906101000a900473ffffffffffffffffffffffffffffffffffffffff166000806101000a81548173ffffffffffffffffffffffffffffffffffffffff021916908373ffffffffffffffffffffffffffffffffffffffff1602179055506000600160006101000a81548173ffffffffffffffffffffffffffffffffffffffff021916908373ffffffffffffffffffffffffffffffffffffffff160217905550565b60085481565b60006007544210156115ff57429050611605565b60075490505b90565b611610611bcc565b600660009054906101000a900473ffffffffffffffffffffffffffffffffffffffff1673ffffffffffffffffffffffffffffffffffffffff168273ffffffffffffffffffffffffffffffffffffffff1614156116a1576040517f08c379a000000000000000000000000000000000000000000000000000000000815260040161169890612aad565b60405180910390fd5b6116ec60008054906101000a900473ffffffffffffffffffffffffffffffffffffffff16828473ffffffffffffffffffffffffffffffffffffffff16611c5c9092919063ffffffff16565b7f8c1256b8896378cd5044f80c202f9772b9d77dc85c8a6eb51967210b09bfaa28828260405161171d92919061287c565b60405180910390a15050565b600c6020528060005260406000206000915090505481565b60008054906101000a900473ffffffffffffffffffffffffffffffffffffffff1681565b60045481565b600260035414156117b1576040517f08c379a00000000000000000000000000000000000000000000000000000000081526004016117a890612a8d565b60405180910390fd5b6002600381905550600560009054906101000a900460ff1615611809576040517f08c379a000000000000000000000000000000000000000000000000000000000815260040161180090612a0d565b60405180910390fd5b33611812611add565b600b819055506118206115eb565b600a81905550600073ffffffffffffffffffffffffffffffffffffffff168173ffffffffffffffffffffffffffffffffffffffff16146118ed57611863816105ae565b600d60008373ffffffffffffffffffffffffffffffffffffffff1673ffffffffffffffffffffffffffffffffffffffff16815260200190815260200160002081905550600b54600c60008373ffffffffffffffffffffffffffffffffffffffff1673ffffffffffffffffffffffffffffffffffffffff168152602001908152602001600020819055505b60008211611930576040517f08c379a00000000000000000000000000000000000000000000000000000000081526004016119279061296d565b60405180910390fd5b81600e60008282546119429190612b51565b9250508190555081600f60003373ffffffffffffffffffffffffffffffffffffffff1673ffffffffffffffffffffffffffffffffffffffff16815260200190815260200160002060008282546119989190612b51565b925050819055506119ee333084600660009054906101000a900473ffffffffffffffffffffffffffffffffffffffff1673ffffffffffffffffffffffffffffffffffffffff16611e1d909392919063ffffffff16565b3373ffffffffffffffffffffffffffffffffffffffff167f9e71bc8eea02a63969f509818f2dafb9254532904319f9dbda79b67bd34a5f3d83604051611a349190612acd565b60405180910390a250600160038190555050565b600a5481565b611a56611bcc565b6007544211611a9a576040517f08c379a0000000000000000000000000000000000000000000000000000000008152600401611a919061292d565b60405180910390fd5b806009819055507ffb46ca5a5e06d4540d6387b930a7c978bce0db5f449ec6b3f5d07c6e1d44f2d3600954604051611ad29190612acd565b60405180910390a150565b600080600e541415611af357600b549050611b45565b600e54670de0b6b3a7640000600854600a54611b0d6115eb565b611b179190612c32565b611b219190612bd8565b611b2b9190612bd8565b611b359190612ba7565b600b54611b429190612b51565b90505b90565b600560019054906101000a900473ffffffffffffffffffffffffffffffffffffffff1681565b600b5481565b611bbc600f60003373ffffffffffffffffffffffffffffffffffffffff1673ffffffffffffffffffffffffffffffffffffffff16815260200190815260200160002054610861565b611bc4610e77565b565b60075481565b60008054906101000a900473ffffffffffffffffffffffffffffffffffffffff1673ffffffffffffffffffffffffffffffffffffffff163373ffffffffffffffffffffffffffffffffffffffff1614611c5a576040517f08c379a0000000000000000000000000000000000000000000000000000000008152600401611c51906129ad565b60405180910390fd5b565b611cdd8363a9059cbb60e01b8484604051602401611c7b92919061287c565b604051602081830303815290604052907bffffffffffffffffffffffffffffffffffffffffffffffffffffffff19166020820180517bffffffffffffffffffffffffffffffffffffffffffffffffffffffff8381831617835250505050611ea6565b505050565b611d7a8282604051602401611cf89291906128fd565b6040516020818303038152906040527f9710a9d0000000000000000000000000000000000000000000000000000000007bffffffffffffffffffffffffffffffffffffffffffffffffffffffff19166020820180517bffffffffffffffffffffffffffffffffffffffffffffffffffffffff8381831617835250505050611f6d565b5050565b611e18838383604051602401611d9693929190612ae8565b6040516020818303038152906040527fe7820a74000000000000000000000000000000000000000000000000000000007bffffffffffffffffffffffffffffffffffffffffffffffffffffffff19166020820180517bffffffffffffffffffffffffffffffffffffffffffffffffffffffff8381831617835250505050611f6d565b505050565b611ea0846323b872dd60e01b858585604051602401611e3e93929190612845565b604051602081830303815290604052907bffffffffffffffffffffffffffffffffffffffffffffffffffffffff19166020820180517bffffffffffffffffffffffffffffffffffffffffffffffffffffffff8381831617835250505050611ea6565b50505050565b6000611f08826040518060400160405280602081526020017f5361666545524332303a206c6f772d6c6576656c2063616c6c206661696c65648152508573ffffffffffffffffffffffffffffffffffffffff16611f969092919063ffffffff16565b9050600081511115611f685780806020019051810190611f289190612233565b611f67576040517f08c379a0000000000000000000000000000000000000000000000000000000008152600401611f5e90612a6d565b60405180910390fd5b5b505050565b60008151905060006a636f6e736f6c652e6c6f679050602083016000808483855afa5050505050565b6060611fa58484600085611fae565b90509392505050565b606082471015611ff3576040517f08c379a0000000000000000000000000000000000000000000000000000000008152600401611fea9061298d565b60405180910390fd5b611ffc856120c2565b61203b576040517f08c379a000000000000000000000000000000000000000000000000000000000815260040161203290612a2d565b60405180910390fd5b6000808673ffffffffffffffffffffffffffffffffffffffff16858760405161206491906127ea565b60006040518083038185875af1925050503d80600081146120a1576040519150601f19603f3d011682016040523d82523d6000602084013e6120a6565b606091505b50915091506120b68282866120d5565b92505050949350505050565b600080823b905060008111915050919050565b606083156120e557829050612135565b6000835111156120f85782518084602001fd5b816040517f08c379a000000000000000000000000000000000000000000000000000000000815260040161212c91906128db565b60405180910390fd5b9392505050565b60008135905061214b81612d74565b92915050565b60008135905061216081612d8b565b92915050565b60008151905061217581612d8b565b92915050565b60008135905061218a81612da2565b92915050565b60008151905061219f81612da2565b92915050565b6000602082840312156121b757600080fd5b60006121c58482850161213c565b91505092915050565b600080604083850312156121e157600080fd5b60006121ef8582860161213c565b92505060206122008582860161217b565b9150509250929050565b60006020828403121561221c57600080fd5b600061222a84828501612151565b91505092915050565b60006020828403121561224557600080fd5b600061225384828501612166565b91505092915050565b60006020828403121561226e57600080fd5b600061227c8482850161217b565b91505092915050565b60006020828403121561229757600080fd5b60006122a584828501612190565b91505092915050565b6122b781612c66565b82525050565b6122c681612c78565b82525050565b60006122d782612b1f565b6122e18185612b35565b93506122f1818560208601612cd2565b80840191505092915050565b61230681612cae565b82525050565b600061231782612b2a565b6123218185612b40565b9350612331818560208601612cd2565b61233a81612d63565b840191505092915050565b6000612352605883612b40565b91507f50726576696f7573207265776172647320706572696f64206d7573742062652060008301527f636f6d706c657465206265666f7265206368616e67696e67207468652064757260208301527f6174696f6e20666f7220746865206e657720706572696f6400000000000000006040830152606082019050919050565b60006123de603583612b40565b91507f596f75206d757374206265206e6f6d696e61746564206265666f726520796f7560008301527f2063616e20616363657074206f776e65727368697000000000000000000000006020830152604082019050919050565b6000612444600e83612b40565b91507f43616e6e6f74207374616b6520300000000000000000000000000000000000006000830152602082019050919050565b6000612484602683612b40565b91507f416464726573733a20696e73756666696369656e742062616c616e636520666f60008301527f722063616c6c00000000000000000000000000000000000000000000000000006020830152604082019050919050565b60006124ea602f83612b40565b91507f4f6e6c792074686520636f6e7472616374206f776e6572206d6179207065726660008301527f6f726d207468697320616374696f6e00000000000000000000000000000000006020830152604082019050919050565b6000612550601183612b40565b91507f43616e6e6f7420776974686472617720300000000000000000000000000000006000830152602082019050919050565b6000612590601883612b40565b91507f50726f76696465642072657761726420746f6f206869676800000000000000006000830152602082019050919050565b60006125d0603c83612b40565b91507f5468697320616374696f6e2063616e6e6f7420626520706572666f726d65642060008301527f7768696c652074686520636f6e747261637420697320706175736564000000006020830152604082019050919050565b6000612636601d83612b40565b91507f416464726573733a2063616c6c20746f206e6f6e2d636f6e74726163740000006000830152602082019050919050565b6000612676602a83612b40565b91507f43616c6c6572206973206e6f742052657761726473446973747269627574696f60008301527f6e20636f6e7472616374000000000000000000000000000000000000000000006020830152604082019050919050565b60006126dc602a83612b40565b91507f5361666545524332303a204552433230206f7065726174696f6e20646964206e60008301527f6f742073756363656564000000000000000000000000000000000000000000006020830152604082019050919050565b6000612742601f83612b40565b91507f5265656e7472616e637947756172643a207265656e7472616e742063616c6c006000830152602082019050919050565b6000612782602183612b40565b91507f43616e6e6f7420776974686472617720746865207374616b696e6720746f6b6560008301527f6e000000000000000000000000000000000000000000000000000000000000006020830152604082019050919050565b6127e481612ca4565b82525050565b60006127f682846122cc565b915081905092915050565b600060208201905061281660008301846122ae565b92915050565b600060408201905061283160008301856122ae565b61283e60208301846122ae565b9392505050565b600060608201905061285a60008301866122ae565b61286760208301856122ae565b61287460408301846127db565b949350505050565b600060408201905061289160008301856122ae565b61289e60208301846127db565b9392505050565b60006020820190506128ba60008301846122bd565b92915050565b60006020820190506128d560008301846122fd565b92915050565b600060208201905081810360008301526128f5818461230c565b905092915050565b60006040820190508181036000830152612917818561230c565b905061292660208301846127db565b9392505050565b6000602082019050818103600083015261294681612345565b9050919050565b60006020820190508181036000830152612966816123d1565b9050919050565b6000602082019050818103600083015261298681612437565b9050919050565b600060208201905081810360008301526129a681612477565b9050919050565b600060208201905081810360008301526129c6816124dd565b9050919050565b600060208201905081810360008301526129e681612543565b9050919050565b60006020820190508181036000830152612a0681612583565b9050919050565b60006020820190508181036000830152612a26816125c3565b9050919050565b60006020820190508181036000830152612a4681612629565b9050919050565b60006020820190508181036000830152612a6681612669565b9050919050565b60006020820190508181036000830152612a86816126cf565b9050919050565b60006020820190508181036000830152612aa681612735565b9050919050565b60006020820190508181036000830152612ac681612775565b9050919050565b6000602082019050612ae260008301846127db565b92915050565b6000606082019050612afd60008301866127db565b612b0a60208301856127db565b612b1760408301846127db565b949350505050565b600081519050919050565b600081519050919050565b600081905092915050565b600082825260208201905092915050565b6000612b5c82612ca4565b9150612b6783612ca4565b9250827fffffffffffffffffffffffffffffffffffffffffffffffffffffffffffffffff03821115612b9c57612b9b612d05565b5b828201905092915050565b6000612bb282612ca4565b9150612bbd83612ca4565b925082612bcd57612bcc612d34565b5b828204905092915050565b6000612be382612ca4565b9150612bee83612ca4565b9250817fffffffffffffffffffffffffffffffffffffffffffffffffffffffffffffffff0483118215151615612c2757612c26612d05565b5b828202905092915050565b6000612c3d82612ca4565b9150612c4883612ca4565b925082821015612c5b57612c5a612d05565b5b828203905092915050565b6000612c7182612c84565b9050919050565b60008115159050919050565b600073ffffffffffffffffffffffffffffffffffffffff82169050919050565b6000819050919050565b6000612cb982612cc0565b9050919050565b6000612ccb82612c84565b9050919050565b60005b83811015612cf0578082015181840152602081019050612cd5565b83811115612cff576000848401525b50505050565b7f4e487b7100000000000000000000000000000000000000000000000000000000600052601160045260246000fd5b7f4e487b7100000000000000000000000000000000000000000000000000000000600052601260045260246000fd5b6000601f19601f8301169050919050565b612d7d81612c66565b8114612d8857600080fd5b50565b612d9481612c78565b8114612d9f57600080fd5b50565b612dab81612ca4565b8114612db657600080fd5b5056fea26469706673582212209e8de74fc7f539fbb5b0b044f4226fe50bff4d19c741a1faa354d4c31c87893c64736f6c63430008000033",
  "linkReferences": {},
  "deployedLinkReferences": {}
}