{
  "_format": "hh-sol-artifact-1",
  "contractName": "StakingRewards",
  "sourceName": "contracts/StakingRewards.sol",
  "abi": [
    {
      "inputs": [
        {
          "internalType": "address",
          "name": "_owner",
          "type": "address"
        },
        {
          "internalType": "address",
          "name": "_rewardsDistribution",
          "type": "address"
        },
        {
          "internalType": "address",
          "name": "_rewardsToken",
          "type": "address"
        },
        {
          "internalType": "address",
          "name": "_stakingToken",
          "type": "address"
        }
      ],
      "stateMutability": "nonpayable",
      "type": "constructor"
    },
    {
      "anonymous": false,
      "inputs": [
        {
          "indexed": false,
          "internalType": "address",
          "name": "oldOwner",
          "type": "address"
        },
        {
          "indexed": false,
          "internalType": "address",
          "name": "newOwner",
          "type": "address"
        }
      ],
      "name": "OwnerChanged",
      "type": "event"
    },
    {
      "anonymous": false,
      "inputs": [
        {
          "indexed": false,
          "internalType": "address",
          "name": "newOwner",
          "type": "address"
        }
      ],
      "name": "OwnerNominated",
      "type": "event"
    },
    {
      "anonymous": false,
      "inputs": [
        {
          "indexed": false,
          "internalType": "bool",
          "name": "isPaused",
          "type": "bool"
        }
      ],
      "name": "PauseChanged",
      "type": "event"
    },
    {
      "anonymous": false,
      "inputs": [
        {
          "indexed": false,
          "internalType": "address",
          "name": "token",
          "type": "address"
        },
        {
          "indexed": false,
          "internalType": "uint256",
          "name": "amount",
          "type": "uint256"
        }
      ],
      "name": "Recovered",
      "type": "event"
    },
    {
      "anonymous": false,
      "inputs": [
        {
          "indexed": false,
          "internalType": "uint256",
          "name": "reward",
          "type": "uint256"
        }
      ],
      "name": "RewardAdded",
      "type": "event"
    },
    {
      "anonymous": false,
      "inputs": [
        {
          "indexed": true,
          "internalType": "address",
          "name": "user",
          "type": "address"
        },
        {
          "indexed": false,
          "internalType": "uint256",
          "name": "reward",
          "type": "uint256"
        }
      ],
      "name": "RewardPaid",
      "type": "event"
    },
    {
      "anonymous": false,
      "inputs": [
        {
          "indexed": false,
          "internalType": "uint256",
          "name": "newDuration",
          "type": "uint256"
        }
      ],
      "name": "RewardsDurationUpdated",
      "type": "event"
    },
    {
      "anonymous": false,
      "inputs": [
        {
          "indexed": true,
          "internalType": "address",
          "name": "user",
          "type": "address"
        },
        {
          "indexed": false,
          "internalType": "uint256",
          "name": "amount",
          "type": "uint256"
        }
      ],
      "name": "Staked",
      "type": "event"
    },
    {
      "anonymous": false,
      "inputs": [
        {
          "indexed": true,
          "internalType": "address",
          "name": "user",
          "type": "address"
        },
        {
          "indexed": false,
          "internalType": "uint256",
          "name": "amount",
          "type": "uint256"
        }
      ],
      "name": "Withdrawn",
      "type": "event"
    },
    {
      "inputs": [],
      "name": "acceptOwnership",
      "outputs": [],
      "stateMutability": "nonpayable",
      "type": "function"
    },
    {
      "inputs": [
        {
          "internalType": "address",
          "name": "account",
          "type": "address"
        }
      ],
      "name": "balanceOf",
      "outputs": [
        {
          "internalType": "uint256",
          "name": "",
          "type": "uint256"
        }
      ],
      "stateMutability": "view",
      "type": "function"
    },
    {
      "inputs": [
        {
          "internalType": "address",
          "name": "account",
          "type": "address"
        }
      ],
      "name": "earned",
      "outputs": [
        {
          "internalType": "uint256",
          "name": "",
          "type": "uint256"
        }
      ],
      "stateMutability": "view",
      "type": "function"
    },
    {
      "inputs": [],
      "name": "exit",
      "outputs": [],
      "stateMutability": "nonpayable",
      "type": "function"
    },
    {
      "inputs": [],
      "name": "getReward",
      "outputs": [],
      "stateMutability": "nonpayable",
      "type": "function"
    },
    {
      "inputs": [],
      "name": "getRewardForDuration",
      "outputs": [
        {
          "internalType": "uint256",
          "name": "",
          "type": "uint256"
        }
      ],
      "stateMutability": "view",
      "type": "function"
    },
    {
      "inputs": [],
      "name": "lastPauseTime",
      "outputs": [
        {
          "internalType": "uint256",
          "name": "",
          "type": "uint256"
        }
      ],
      "stateMutability": "view",
      "type": "function"
    },
    {
      "inputs": [],
      "name": "lastTimeRewardApplicable",
      "outputs": [
        {
          "internalType": "uint256",
          "name": "",
          "type": "uint256"
        }
      ],
      "stateMutability": "view",
      "type": "function"
    },
    {
      "inputs": [],
      "name": "lastUpdateTime",
      "outputs": [
        {
          "internalType": "uint256",
          "name": "",
          "type": "uint256"
        }
      ],
      "stateMutability": "view",
      "type": "function"
    },
    {
      "inputs": [
        {
          "internalType": "address",
          "name": "_owner",
          "type": "address"
        }
      ],
      "name": "nominateNewOwner",
      "outputs": [],
      "stateMutability": "nonpayable",
      "type": "function"
    },
    {
      "inputs": [],
      "name": "nominatedOwner",
      "outputs": [
        {
          "internalType": "address",
          "name": "",
          "type": "address"
        }
      ],
      "stateMutability": "view",
      "type": "function"
    },
    {
      "inputs": [
        {
          "internalType": "uint256",
          "name": "reward",
          "type": "uint256"
        }
      ],
      "name": "notifyRewardAmount",
      "outputs": [],
      "stateMutability": "nonpayable",
      "type": "function"
    },
    {
      "inputs": [],
      "name": "owner",
      "outputs": [
        {
          "internalType": "address",
          "name": "",
          "type": "address"
        }
      ],
      "stateMutability": "view",
      "type": "function"
    },
    {
      "inputs": [],
      "name": "paused",
      "outputs": [
        {
          "internalType": "bool",
          "name": "",
          "type": "bool"
        }
      ],
      "stateMutability": "view",
      "type": "function"
    },
    {
      "inputs": [],
      "name": "periodFinish",
      "outputs": [
        {
          "internalType": "uint256",
          "name": "",
          "type": "uint256"
        }
      ],
      "stateMutability": "view",
      "type": "function"
    },
    {
      "inputs": [
        {
          "internalType": "address",
          "name": "tokenAddress",
          "type": "address"
        },
        {
          "internalType": "uint256",
          "name": "tokenAmount",
          "type": "uint256"
        }
      ],
      "name": "recoverERC20",
      "outputs": [],
      "stateMutability": "nonpayable",
      "type": "function"
    },
    {
      "inputs": [],
      "name": "rewardPerToken",
      "outputs": [
        {
          "internalType": "uint256",
          "name": "",
          "type": "uint256"
        }
      ],
      "stateMutability": "view",
      "type": "function"
    },
    {
      "inputs": [],
      "name": "rewardPerTokenStored",
      "outputs": [
        {
          "internalType": "uint256",
          "name": "",
          "type": "uint256"
        }
      ],
      "stateMutability": "view",
      "type": "function"
    },
    {
      "inputs": [],
      "name": "rewardRate",
      "outputs": [
        {
          "internalType": "uint256",
          "name": "",
          "type": "uint256"
        }
      ],
      "stateMutability": "view",
      "type": "function"
    },
    {
      "inputs": [
        {
          "internalType": "address",
          "name": "",
          "type": "address"
        }
      ],
      "name": "rewards",
      "outputs": [
        {
          "internalType": "uint256",
          "name": "",
          "type": "uint256"
        }
      ],
      "stateMutability": "view",
      "type": "function"
    },
    {
      "inputs": [],
      "name": "rewardsDistribution",
      "outputs": [
        {
          "internalType": "address",
          "name": "",
          "type": "address"
        }
      ],
      "stateMutability": "view",
      "type": "function"
    },
    {
      "inputs": [],
      "name": "rewardsDuration",
      "outputs": [
        {
          "internalType": "uint256",
          "name": "",
          "type": "uint256"
        }
      ],
      "stateMutability": "view",
      "type": "function"
    },
    {
      "inputs": [],
      "name": "rewardsToken",
      "outputs": [
        {
          "internalType": "contract IERC20",
          "name": "",
          "type": "address"
        }
      ],
      "stateMutability": "view",
      "type": "function"
    },
    {
      "inputs": [
        {
          "internalType": "bool",
          "name": "_paused",
          "type": "bool"
        }
      ],
      "name": "setPaused",
      "outputs": [],
      "stateMutability": "nonpayable",
      "type": "function"
    },
    {
      "inputs": [
        {
          "internalType": "address",
          "name": "_rewardsDistribution",
          "type": "address"
        }
      ],
      "name": "setRewardsDistribution",
      "outputs": [],
      "stateMutability": "nonpayable",
      "type": "function"
    },
    {
      "inputs": [
        {
          "internalType": "uint256",
          "name": "_rewardsDuration",
          "type": "uint256"
        }
      ],
      "name": "setRewardsDuration",
      "outputs": [],
      "stateMutability": "nonpayable",
      "type": "function"
    },
    {
      "inputs": [
        {
          "internalType": "uint256",
          "name": "amount",
          "type": "uint256"
        }
      ],
      "name": "stake",
      "outputs": [],
      "stateMutability": "nonpayable",
      "type": "function"
    },
    {
      "inputs": [],
      "name": "stakingToken",
      "outputs": [
        {
          "internalType": "contract IERC20",
          "name": "",
          "type": "address"
        }
      ],
      "stateMutability": "view",
      "type": "function"
    },
    {
      "inputs": [],
      "name": "totalSupply",
      "outputs": [
        {
          "internalType": "uint256",
          "name": "",
          "type": "uint256"
        }
      ],
      "stateMutability": "view",
      "type": "function"
    },
    {
      "inputs": [
        {
          "internalType": "uint256",
          "name": "timestamp",
          "type": "uint256"
        }
      ],
      "name": "updatePeriodFinish",
      "outputs": [],
      "stateMutability": "nonpayable",
      "type": "function"
    },
    {
      "inputs": [
        {
          "internalType": "address",
          "name": "",
          "type": "address"
        }
      ],
      "name": "userRewardPerTokenPaid",
      "outputs": [
        {
          "internalType": "uint256",
          "name": "",
          "type": "uint256"
        }
      ],
      "stateMutability": "view",
      "type": "function"
    },
    {
      "inputs": [
        {
          "internalType": "uint256",
          "name": "amount",
          "type": "uint256"
        }
      ],
      "name": "withdraw",
      "outputs": [],
      "stateMutability": "nonpayable",
      "type": "function"
    }
  ],
  "bytecode": "0x60806040526000600755600060085562093a806009553480156200002257600080fd5b5060405162002ee238038062002ee28339818101604052810190620000489190620002b8565b83600073ffffffffffffffffffffffffffffffffffffffff168173ffffffffffffffffffffffffffffffffffffffff161415620000bc576040517f08c379a0000000000000000000000000000000000000000000000000000000008152600401620000b39062000408565b60405180910390fd5b806000806101000a81548173ffffffffffffffffffffffffffffffffffffffff021916908373ffffffffffffffffffffffffffffffffffffffff1602179055507fb532073b38c83145e3e5135377a08bf9aab55bc0fd7c1179cd4fb995d2a5159c60008260405162000130929190620003b9565b60405180910390a1506001600381905550600073ffffffffffffffffffffffffffffffffffffffff1660008054906101000a900473ffffffffffffffffffffffffffffffffffffffff1673ffffffffffffffffffffffffffffffffffffffff161415620001d4576040517f08c379a0000000000000000000000000000000000000000000000000000000008152600401620001cb90620003e6565b60405180910390fd5b81600560016101000a81548173ffffffffffffffffffffffffffffffffffffffff021916908373ffffffffffffffffffffffffffffffffffffffff16021790555080600660006101000a81548173ffffffffffffffffffffffffffffffffffffffff021916908373ffffffffffffffffffffffffffffffffffffffff16021790555082600260006101000a81548173ffffffffffffffffffffffffffffffffffffffff021916908373ffffffffffffffffffffffffffffffffffffffff1602179055505050505062000489565b600081519050620002b2816200046f565b92915050565b60008060008060808587031215620002cf57600080fd5b6000620002df87828801620002a1565b9450506020620002f287828801620002a1565b93505060406200030587828801620002a1565b92505060606200031887828801620002a1565b91505092959194509250565b6200032f816200043b565b82525050565b6000620003446011836200042a565b91507f4f776e6572206d757374206265207365740000000000000000000000000000006000830152602082019050919050565b6000620003866019836200042a565b91507f4f776e657220616464726573732063616e6e6f742062652030000000000000006000830152602082019050919050565b6000604082019050620003d0600083018562000324565b620003df602083018462000324565b9392505050565b60006020820190508181036000830152620004018162000335565b9050919050565b60006020820190508181036000830152620004238162000377565b9050919050565b600082825260208201905092915050565b600062000448826200044f565b9050919050565b600073ffffffffffffffffffffffffffffffffffffffff82169050919050565b6200047a816200043b565b81146200048657600080fd5b50565b612a4980620004996000396000f3fe608060405234801561001057600080fd5b50600436106101ef5760003560e01c806372f702f31161010f578063a694fc3a116100a2578063d1af0c7d11610071578063d1af0c7d1461054a578063df136d6514610568578063e9fad8ee14610586578063ebe2b12b14610590576101ef565b8063a694fc3a146104d6578063c8f33c91146104f2578063cc1a378f14610510578063cd3daf9d1461052c576101ef565b80638980f11f116100de5780638980f11f1461044e5780638b8763471461046a5780638da5cb5b1461049a57806391b4ded9146104b8576101ef565b806372f702f3146103ea57806379ba5097146104085780637b0a47ee1461041257806380faa57d14610430576101ef565b8063386a95251161018757806353a47bb71161015657806353a47bb714610362578063556f6e6b146103805780635c975abb1461039c57806370a08231146103ba576101ef565b8063386a9525146103005780633c6b16ab1461031e5780633d18b9121461033a5780633fc6df6e14610344576101ef565b806318160ddd116101c357806318160ddd1461028c57806319762143146102aa5780631c1f78eb146102c65780632e1a7d4d146102e4576101ef565b80628cc262146101f45780630700037d146102245780631627540c1461025457806316c38b3c14610270575b600080fd5b61020e60048036038101906102099190611e66565b6105ae565b60405161021b919061275e565b60405180910390f35b61023e60048036038101906102399190611e66565b6106b0565b60405161024b919061275e565b60405180910390f35b61026e60048036038101906102699190611e66565b6106c8565b005b61028a60048036038101906102859190611ecb565b61074b565b005b6102946107f4565b6040516102a1919061275e565b60405180910390f35b6102c460048036038101906102bf9190611e66565b6107fe565b005b6102ce61084a565b6040516102db919061275e565b60405180910390f35b6102fe60048036038101906102f99190611f1d565b610861565b005b610308610aec565b604051610315919061275e565b60405180910390f35b61033860048036038101906103339190611f1d565b610af2565b005b610342610e27565b005b61034c611093565b60405161035991906124c2565b60405180910390f35b61036a6110b9565b60405161037791906124c2565b60405180910390f35b61039a60048036038101906103959190611f1d565b6110df565b005b6103a46111d7565b6040516103b19190612566565b60405180910390f35b6103d460048036038101906103cf9190611e66565b6111ea565b6040516103e1919061275e565b60405180910390f35b6103f2611233565b6040516103ff9190612581565b60405180910390f35b610410611259565b005b61041a61140a565b604051610427919061275e565b60405180910390f35b610438611410565b604051610445919061275e565b60405180910390f35b61046860048036038101906104639190611e8f565b61142d565b005b610484600480360381019061047f9190611e66565b61154e565b604051610491919061275e565b60405180910390f35b6104a2611566565b6040516104af91906124c2565b60405180910390f35b6104c061158a565b6040516104cd919061275e565b60405180910390f35b6104f060048036038101906104eb9190611f1d565b611590565b005b6104fa61186d565b604051610507919061275e565b60405180910390f35b61052a60048036038101906105259190611f1d565b611873565b005b610534611902565b604051610541919061275e565b60405180910390f35b61055261196d565b60405161055f9190612581565b60405180910390f35b610570611993565b60405161057d919061275e565b60405180910390f35b61058e611999565b005b6105986119eb565b6040516105a5919061275e565b60405180910390f35b6000600d60008373ffffffffffffffffffffffffffffffffffffffff1673ffffffffffffffffffffffffffffffffffffffff16815260200190815260200160002054670de0b6b3a7640000600c60008573ffffffffffffffffffffffffffffffffffffffff1673ffffffffffffffffffffffffffffffffffffffff16815260200190815260200160002054610641611902565b61064b919061288c565b6106559190612801565b600f60008573ffffffffffffffffffffffffffffffffffffffff1673ffffffffffffffffffffffffffffffffffffffff1681526020019081526020016000205461069f9190612832565b6106a991906127ab565b9050919050565b600d6020528060005260406000206000915090505481565b6106d06119f1565b80600160006101000a81548173ffffffffffffffffffffffffffffffffffffffff021916908373ffffffffffffffffffffffffffffffffffffffff1602179055507f906a1c6bd7e3091ea86693dd029a831c19049ce77f1dce2ce0bab1cacbabce228160405161074091906124c2565b60405180910390a150565b6107536119f1565b600560009054906101000a900460ff1615158115151415610773576107f1565b80600560006101000a81548160ff021916908315150217905550600560009054906101000a900460ff16156107aa57426004819055505b7f8fb6c181ee25a520cf3dd6565006ef91229fcfe5a989566c2a3b8c115570cec5600560009054906101000a900460ff166040516107e89190612566565b60405180910390a15b50565b6000600e54905090565b6108066119f1565b80600260006101000a81548173ffffffffffffffffffffffffffffffffffffffff021916908373ffffffffffffffffffffffffffffffffffffffff16021790555050565b600060095460085461085c9190612832565b905090565b600260035414156108a7576040517f08c379a000000000000000000000000000000000000000000000000000000000815260040161089e9061271e565b60405180910390fd5b6002600381905550336108b8611902565b600b819055506108c6611410565b600a81905550600073ffffffffffffffffffffffffffffffffffffffff168173ffffffffffffffffffffffffffffffffffffffff161461099357610909816105ae565b600d60008373ffffffffffffffffffffffffffffffffffffffff1673ffffffffffffffffffffffffffffffffffffffff16815260200190815260200160002081905550600b54600c60008373ffffffffffffffffffffffffffffffffffffffff1673ffffffffffffffffffffffffffffffffffffffff168152602001908152602001600020819055505b600082116109d6576040517f08c379a00000000000000000000000000000000000000000000000000000000081526004016109cd9061265e565b60405180910390fd5b81600e60008282546109e8919061288c565b9250508190555081600f60003373ffffffffffffffffffffffffffffffffffffffff1673ffffffffffffffffffffffffffffffffffffffff1681526020019081526020016000206000828254610a3e919061288c565b92505081905550610a923383600660009054906101000a900473ffffffffffffffffffffffffffffffffffffffff1673ffffffffffffffffffffffffffffffffffffffff16611a819092919063ffffffff16565b3373ffffffffffffffffffffffffffffffffffffffff167f7084f5476618d8e60b11ef0d7d3f06914655adb8793e28ff7f018d4c76d505d583604051610ad8919061275e565b60405180910390a250600160038190555050565b60095481565b600260009054906101000a900473ffffffffffffffffffffffffffffffffffffffff1673ffffffffffffffffffffffffffffffffffffffff163373ffffffffffffffffffffffffffffffffffffffff1614610b82576040517f08c379a0000000000000000000000000000000000000000000000000000000008152600401610b79906126de565b60405180910390fd5b6000610b8c611902565b600b81905550610b9a611410565b600a81905550600073ffffffffffffffffffffffffffffffffffffffff168173ffffffffffffffffffffffffffffffffffffffff1614610c6757610bdd816105ae565b600d60008373ffffffffffffffffffffffffffffffffffffffff1673ffffffffffffffffffffffffffffffffffffffff16815260200190815260200160002081905550600b54600c60008373ffffffffffffffffffffffffffffffffffffffff1673ffffffffffffffffffffffffffffffffffffffff168152602001908152602001600020819055505b6007544210610c895760095482610c7e9190612801565b600881905550610ccf565b600042600754610c99919061288c565b9050600060085482610cab9190612832565b90506009548185610cbc91906127ab565b610cc69190612801565b60088190555050505b6000600560019054906101000a900473ffffffffffffffffffffffffffffffffffffffff1673ffffffffffffffffffffffffffffffffffffffff166370a08231306040518263ffffffff1660e01b8152600401610d2c91906124c2565b60206040518083038186803b158015610d4457600080fd5b505afa158015610d58573d6000803e3d6000fd5b505050506040513d601f19601f82011682018060405250810190610d7c9190611f46565b905060095481610d8c9190612801565b6008541115610dd0576040517f08c379a0000000000000000000000000000000000000000000000000000000008152600401610dc79061267e565b60405180910390fd5b42600a8190555060095442610de591906127ab565b6007819055507fde88a922e0d3b88b24e9623efeb464919c6bf9f66857a65e2bfcf2ce87a9433d83604051610e1a919061275e565b60405180910390a1505050565b60026003541415610e6d576040517f08c379a0000000000000000000000000000000000000000000000000000000008152600401610e649061271e565b60405180910390fd5b600260038190555033610e7e611902565b600b81905550610e8c611410565b600a81905550600073ffffffffffffffffffffffffffffffffffffffff168173ffffffffffffffffffffffffffffffffffffffff1614610f5957610ecf816105ae565b600d60008373ffffffffffffffffffffffffffffffffffffffff1673ffffffffffffffffffffffffffffffffffffffff16815260200190815260200160002081905550600b54600c60008373ffffffffffffffffffffffffffffffffffffffff1673ffffffffffffffffffffffffffffffffffffffff168152602001908152602001600020819055505b6000600d60003373ffffffffffffffffffffffffffffffffffffffff1673ffffffffffffffffffffffffffffffffffffffff1681526020019081526020016000205490506000811115611087576000600d60003373ffffffffffffffffffffffffffffffffffffffff1673ffffffffffffffffffffffffffffffffffffffff168152602001908152602001600020819055506110383382600560019054906101000a900473ffffffffffffffffffffffffffffffffffffffff1673ffffffffffffffffffffffffffffffffffffffff16611a819092919063ffffffff16565b3373ffffffffffffffffffffffffffffffffffffffff167fe2403640ba68fed3a2f88b7557551d1993f84b99bb10ff833f0cf8db0c5e04868260405161107e919061275e565b60405180910390a25b50506001600381905550565b600260009054906101000a900473ffffffffffffffffffffffffffffffffffffffff1681565b600160009054906101000a900473ffffffffffffffffffffffffffffffffffffffff1681565b6110e76119f1565b60006110f1611902565b600b819055506110ff611410565b600a81905550600073ffffffffffffffffffffffffffffffffffffffff168173ffffffffffffffffffffffffffffffffffffffff16146111cc57611142816105ae565b600d60008373ffffffffffffffffffffffffffffffffffffffff1673ffffffffffffffffffffffffffffffffffffffff16815260200190815260200160002081905550600b54600c60008373ffffffffffffffffffffffffffffffffffffffff1673ffffffffffffffffffffffffffffffffffffffff168152602001908152602001600020819055505b816007819055505050565b600560009054906101000a900460ff1681565b6000600f60008373ffffffffffffffffffffffffffffffffffffffff1673ffffffffffffffffffffffffffffffffffffffff168152602001908152602001600020549050919050565b600660009054906101000a900473ffffffffffffffffffffffffffffffffffffffff1681565b600160009054906101000a900473ffffffffffffffffffffffffffffffffffffffff1673ffffffffffffffffffffffffffffffffffffffff163373ffffffffffffffffffffffffffffffffffffffff16146112e9576040517f08c379a00000000000000000000000000000000000000000000000000000000081526004016112e0906125de565b60405180910390fd5b7fb532073b38c83145e3e5135377a08bf9aab55bc0fd7c1179cd4fb995d2a5159c60008054906101000a900473ffffffffffffffffffffffffffffffffffffffff16600160009054906101000a900473ffffffffffffffffffffffffffffffffffffffff1660405161135c9291906124dd565b60405180910390a1600160009054906101000a900473ffffffffffffffffffffffffffffffffffffffff166000806101000a81548173ffffffffffffffffffffffffffffffffffffffff021916908373ffffffffffffffffffffffffffffffffffffffff1602179055506000600160006101000a81548173ffffffffffffffffffffffffffffffffffffffff021916908373ffffffffffffffffffffffffffffffffffffffff160217905550565b60085481565b60006007544210156114245742905061142a565b60075490505b90565b6114356119f1565b600660009054906101000a900473ffffffffffffffffffffffffffffffffffffffff1673ffffffffffffffffffffffffffffffffffffffff168273ffffffffffffffffffffffffffffffffffffffff1614156114c6576040517f08c379a00000000000000000000000000000000000000000000000000000000081526004016114bd9061273e565b60405180910390fd5b61151160008054906101000a900473ffffffffffffffffffffffffffffffffffffffff16828473ffffffffffffffffffffffffffffffffffffffff16611a819092919063ffffffff16565b7f8c1256b8896378cd5044f80c202f9772b9d77dc85c8a6eb51967210b09bfaa28828260405161154292919061253d565b60405180910390a15050565b600c6020528060005260406000206000915090505481565b60008054906101000a900473ffffffffffffffffffffffffffffffffffffffff1681565b60045481565b600260035414156115d6576040517f08c379a00000000000000000000000000000000000000000000000000000000081526004016115cd9061271e565b60405180910390fd5b6002600381905550600560009054906101000a900460ff161561162e576040517f08c379a00000000000000000000000000000000000000000000000000000000081526004016116259061269e565b60405180910390fd5b33611637611902565b600b81905550611645611410565b600a81905550600073ffffffffffffffffffffffffffffffffffffffff168173ffffffffffffffffffffffffffffffffffffffff161461171257611688816105ae565b600d60008373ffffffffffffffffffffffffffffffffffffffff1673ffffffffffffffffffffffffffffffffffffffff16815260200190815260200160002081905550600b54600c60008373ffffffffffffffffffffffffffffffffffffffff1673ffffffffffffffffffffffffffffffffffffffff168152602001908152602001600020819055505b60008211611755576040517f08c379a000000000000000000000000000000000000000000000000000000000815260040161174c906125fe565b60405180910390fd5b81600e600082825461176791906127ab565b9250508190555081600f60003373ffffffffffffffffffffffffffffffffffffffff1673ffffffffffffffffffffffffffffffffffffffff16815260200190815260200160002060008282546117bd91906127ab565b92505081905550611813333084600660009054906101000a900473ffffffffffffffffffffffffffffffffffffffff1673ffffffffffffffffffffffffffffffffffffffff16611b07909392919063ffffffff16565b3373ffffffffffffffffffffffffffffffffffffffff167f9e71bc8eea02a63969f509818f2dafb9254532904319f9dbda79b67bd34a5f3d83604051611859919061275e565b60405180910390a250600160038190555050565b600a5481565b61187b6119f1565b60075442116118bf576040517f08c379a00000000000000000000000000000000000000000000000000000000081526004016118b6906125be565b60405180910390fd5b806009819055507ffb46ca5a5e06d4540d6387b930a7c978bce0db5f449ec6b3f5d07c6e1d44f2d36009546040516118f7919061275e565b60405180910390a150565b600080600e54141561191857600b54905061196a565b600e54670de0b6b3a7640000600854600a54611932611410565b61193c919061288c565b6119469190612832565b6119509190612832565b61195a9190612801565b600b5461196791906127ab565b90505b90565b600560019054906101000a900473ffffffffffffffffffffffffffffffffffffffff1681565b600b5481565b6119e1600f60003373ffffffffffffffffffffffffffffffffffffffff1673ffffffffffffffffffffffffffffffffffffffff16815260200190815260200160002054610861565b6119e9610e27565b565b60075481565b60008054906101000a900473ffffffffffffffffffffffffffffffffffffffff1673ffffffffffffffffffffffffffffffffffffffff163373ffffffffffffffffffffffffffffffffffffffff1614611a7f576040517f08c379a0000000000000000000000000000000000000000000000000000000008152600401611a769061263e565b60405180910390fd5b565b611b028363a9059cbb60e01b8484604051602401611aa092919061253d565b604051602081830303815290604052907bffffffffffffffffffffffffffffffffffffffffffffffffffffffff19166020820180517bffffffffffffffffffffffffffffffffffffffffffffffffffffffff8381831617835250505050611b90565b505050565b611b8a846323b872dd60e01b858585604051602401611b2893929190612506565b604051602081830303815290604052907bffffffffffffffffffffffffffffffffffffffffffffffffffffffff19166020820180517bffffffffffffffffffffffffffffffffffffffffffffffffffffffff8381831617835250505050611b90565b50505050565b6000611bf2826040518060400160405280602081526020017f5361666545524332303a206c6f772d6c6576656c2063616c6c206661696c65648152508573ffffffffffffffffffffffffffffffffffffffff16611c579092919063ffffffff16565b9050600081511115611c525780806020019051810190611c129190611ef4565b611c51576040517f08c379a0000000000000000000000000000000000000000000000000000000008152600401611c48906126fe565b60405180910390fd5b5b505050565b6060611c668484600085611c6f565b90509392505050565b606082471015611cb4576040517f08c379a0000000000000000000000000000000000000000000000000000000008152600401611cab9061261e565b60405180910390fd5b611cbd85611d83565b611cfc576040517f08c379a0000000000000000000000000000000000000000000000000000000008152600401611cf3906126be565b60405180910390fd5b6000808673ffffffffffffffffffffffffffffffffffffffff168587604051611d2591906124ab565b60006040518083038185875af1925050503d8060008114611d62576040519150601f19603f3d011682016040523d82523d6000602084013e611d67565b606091505b5091509150611d77828286611d96565b92505050949350505050565b600080823b905060008111915050919050565b60608315611da657829050611df6565b600083511115611db95782518084602001fd5b816040517f08c379a0000000000000000000000000000000000000000000000000000000008152600401611ded919061259c565b60405180910390fd5b9392505050565b600081359050611e0c816129ce565b92915050565b600081359050611e21816129e5565b92915050565b600081519050611e36816129e5565b92915050565b600081359050611e4b816129fc565b92915050565b600081519050611e60816129fc565b92915050565b600060208284031215611e7857600080fd5b6000611e8684828501611dfd565b91505092915050565b60008060408385031215611ea257600080fd5b6000611eb085828601611dfd565b9250506020611ec185828601611e3c565b9150509250929050565b600060208284031215611edd57600080fd5b6000611eeb84828501611e12565b91505092915050565b600060208284031215611f0657600080fd5b6000611f1484828501611e27565b91505092915050565b600060208284031215611f2f57600080fd5b6000611f3d84828501611e3c565b91505092915050565b600060208284031215611f5857600080fd5b6000611f6684828501611e51565b91505092915050565b611f78816128c0565b82525050565b611f87816128d2565b82525050565b6000611f9882612779565b611fa2818561278f565b9350611fb281856020860161292c565b80840191505092915050565b611fc781612908565b82525050565b6000611fd882612784565b611fe2818561279a565b9350611ff281856020860161292c565b611ffb816129bd565b840191505092915050565b600061201360588361279a565b91507f50726576696f7573207265776172647320706572696f64206d7573742062652060008301527f636f6d706c657465206265666f7265206368616e67696e67207468652064757260208301527f6174696f6e20666f7220746865206e657720706572696f6400000000000000006040830152606082019050919050565b600061209f60358361279a565b91507f596f75206d757374206265206e6f6d696e61746564206265666f726520796f7560008301527f2063616e20616363657074206f776e65727368697000000000000000000000006020830152604082019050919050565b6000612105600e8361279a565b91507f43616e6e6f74207374616b6520300000000000000000000000000000000000006000830152602082019050919050565b600061214560268361279a565b91507f416464726573733a20696e73756666696369656e742062616c616e636520666f60008301527f722063616c6c00000000000000000000000000000000000000000000000000006020830152604082019050919050565b60006121ab602f8361279a565b91507f4f6e6c792074686520636f6e7472616374206f776e6572206d6179207065726660008301527f6f726d207468697320616374696f6e00000000000000000000000000000000006020830152604082019050919050565b600061221160118361279a565b91507f43616e6e6f7420776974686472617720300000000000000000000000000000006000830152602082019050919050565b600061225160188361279a565b91507f50726f76696465642072657761726420746f6f206869676800000000000000006000830152602082019050919050565b6000612291603c8361279a565b91507f5468697320616374696f6e2063616e6e6f7420626520706572666f726d65642060008301527f7768696c652074686520636f6e747261637420697320706175736564000000006020830152604082019050919050565b60006122f7601d8361279a565b91507f416464726573733a2063616c6c20746f206e6f6e2d636f6e74726163740000006000830152602082019050919050565b6000612337602a8361279a565b91507f43616c6c6572206973206e6f742052657761726473446973747269627574696f60008301527f6e20636f6e7472616374000000000000000000000000000000000000000000006020830152604082019050919050565b600061239d602a8361279a565b91507f5361666545524332303a204552433230206f7065726174696f6e20646964206e60008301527f6f742073756363656564000000000000000000000000000000000000000000006020830152604082019050919050565b6000612403601f8361279a565b91507f5265656e7472616e637947756172643a207265656e7472616e742063616c6c006000830152602082019050919050565b600061244360218361279a565b91507f43616e6e6f7420776974686472617720746865207374616b696e6720746f6b6560008301527f6e000000000000000000000000000000000000000000000000000000000000006020830152604082019050919050565b6124a5816128fe565b82525050565b60006124b78284611f8d565b915081905092915050565b60006020820190506124d76000830184611f6f565b92915050565b60006040820190506124f26000830185611f6f565b6124ff6020830184611f6f565b9392505050565b600060608201905061251b6000830186611f6f565b6125286020830185611f6f565b612535604083018461249c565b949350505050565b60006040820190506125526000830185611f6f565b61255f602083018461249c565b9392505050565b600060208201905061257b6000830184611f7e565b92915050565b60006020820190506125966000830184611fbe565b92915050565b600060208201905081810360008301526125b68184611fcd565b905092915050565b600060208201905081810360008301526125d781612006565b9050919050565b600060208201905081810360008301526125f781612092565b9050919050565b60006020820190508181036000830152612617816120f8565b9050919050565b6000602082019050818103600083015261263781612138565b9050919050565b600060208201905081810360008301526126578161219e565b9050919050565b6000602082019050818103600083015261267781612204565b9050919050565b6000602082019050818103600083015261269781612244565b9050919050565b600060208201905081810360008301526126b781612284565b9050919050565b600060208201905081810360008301526126d7816122ea565b9050919050565b600060208201905081810360008301526126f78161232a565b9050919050565b6000602082019050818103600083015261271781612390565b9050919050565b60006020820190508181036000830152612737816123f6565b9050919050565b6000602082019050818103600083015261275781612436565b9050919050565b6000602082019050612773600083018461249c565b92915050565b600081519050919050565b600081519050919050565b600081905092915050565b600082825260208201905092915050565b60006127b6826128fe565b91506127c1836128fe565b9250827fffffffffffffffffffffffffffffffffffffffffffffffffffffffffffffffff038211156127f6576127f561295f565b5b828201905092915050565b600061280c826128fe565b9150612817836128fe565b9250826128275761282661298e565b5b828204905092915050565b600061283d826128fe565b9150612848836128fe565b9250817fffffffffffffffffffffffffffffffffffffffffffffffffffffffffffffffff04831182151516156128815761288061295f565b5b828202905092915050565b6000612897826128fe565b91506128a2836128fe565b9250828210156128b5576128b461295f565b5b828203905092915050565b60006128cb826128de565b9050919050565b60008115159050919050565b600073ffffffffffffffffffffffffffffffffffffffff82169050919050565b6000819050919050565b60006129138261291a565b9050919050565b6000612925826128de565b9050919050565b60005b8381101561294a57808201518184015260208101905061292f565b83811115612959576000848401525b50505050565b7f4e487b7100000000000000000000000000000000000000000000000000000000600052601160045260246000fd5b7f4e487b7100000000000000000000000000000000000000000000000000000000600052601260045260246000fd5b6000601f19601f8301169050919050565b6129d7816128c0565b81146129e257600080fd5b50565b6129ee816128d2565b81146129f957600080fd5b50565b612a05816128fe565b8114612a1057600080fd5b5056fea2646970667358221220820415231bc1e2750477396cfe5e525206b6a1f34633e1ad17a3a803227ba71f64736f6c63430008000033",
  "linkReferences": {},
  "deployedLinkReferences": {}
}