{
  "_format": "hh-sol-artifact-1",
  "contractName": "Ticket",
  "sourceName": "contracts/Ticket.sol",
  "abi": [
    {
      "inputs": [],
      "stateMutability": "nonpayable",
      "type": "constructor"
    },
    {
      "anonymous": false,
      "inputs": [
        {
          "indexed": true,
          "internalType": "address",
          "name": "owner",
          "type": "address"
        },
        {
          "indexed": true,
          "internalType": "address",
          "name": "spender",
          "type": "address"
        },
        {
          "indexed": false,
          "internalType": "uint256",
          "name": "value",
          "type": "uint256"
        }
      ],
      "name": "Approval",
      "type": "event"
    },
    {
      "anonymous": false,
      "inputs": [
        {
          "indexed": true,
          "internalType": "address",
          "name": "previousOwner",
          "type": "address"
        },
        {
          "indexed": true,
          "internalType": "address",
          "name": "newOwner",
          "type": "address"
        }
      ],
      "name": "OwnershipTransferred",
      "type": "event"
    },
    {
      "anonymous": false,
      "inputs": [
        {
          "indexed": true,
          "internalType": "address",
          "name": "from",
          "type": "address"
        },
        {
          "indexed": true,
          "internalType": "address",
          "name": "to",
          "type": "address"
        },
        {
          "indexed": false,
          "internalType": "uint256",
          "name": "value",
          "type": "uint256"
        }
      ],
      "name": "Transfer",
      "type": "event"
    },
    {
      "inputs": [
        {
          "internalType": "address",
          "name": "owner",
          "type": "address"
        },
        {
          "internalType": "address",
          "name": "spender",
          "type": "address"
        }
      ],
      "name": "allowance",
      "outputs": [
        {
          "internalType": "uint256",
          "name": "",
          "type": "uint256"
        }
      ],
      "stateMutability": "view",
      "type": "function"
    },
    {
      "inputs": [
        {
          "internalType": "address",
          "name": "spender",
          "type": "address"
        },
        {
          "internalType": "uint256",
          "name": "amount",
          "type": "uint256"
        }
      ],
      "name": "approve",
      "outputs": [
        {
          "internalType": "bool",
          "name": "",
          "type": "bool"
        }
      ],
      "stateMutability": "nonpayable",
      "type": "function"
    },
    {
      "inputs": [
        {
          "internalType": "address",
          "name": "account",
          "type": "address"
        }
      ],
      "name": "balanceOf",
      "outputs": [
        {
          "internalType": "uint256",
          "name": "",
          "type": "uint256"
        }
      ],
      "stateMutability": "view",
      "type": "function"
    },
    {
      "inputs": [
        {
          "internalType": "uint256",
          "name": "amount",
          "type": "uint256"
        }
      ],
      "name": "burn",
      "outputs": [],
      "stateMutability": "nonpayable",
      "type": "function"
    },
    {
      "inputs": [
        {
          "internalType": "address",
          "name": "account",
          "type": "address"
        },
        {
          "internalType": "uint256",
          "name": "amount",
          "type": "uint256"
        }
      ],
      "name": "burnFrom",
      "outputs": [],
      "stateMutability": "nonpayable",
      "type": "function"
    },
    {
      "inputs": [],
      "name": "decimals",
      "outputs": [
        {
          "internalType": "uint8",
          "name": "",
          "type": "uint8"
        }
      ],
      "stateMutability": "view",
      "type": "function"
    },
    {
      "inputs": [
        {
          "internalType": "address",
          "name": "spender",
          "type": "address"
        },
        {
          "internalType": "uint256",
          "name": "subtractedValue",
          "type": "uint256"
        }
      ],
      "name": "decreaseAllowance",
      "outputs": [
        {
          "internalType": "bool",
          "name": "",
          "type": "bool"
        }
      ],
      "stateMutability": "nonpayable",
      "type": "function"
    },
    {
      "inputs": [
        {
          "internalType": "address",
          "name": "spender",
          "type": "address"
        },
        {
          "internalType": "uint256",
          "name": "addedValue",
          "type": "uint256"
        }
      ],
      "name": "increaseAllowance",
      "outputs": [
        {
          "internalType": "bool",
          "name": "",
          "type": "bool"
        }
      ],
      "stateMutability": "nonpayable",
      "type": "function"
    },
    {
      "inputs": [
        {
          "internalType": "uint256",
          "name": "_amount",
          "type": "uint256"
        }
      ],
      "name": "mint",
      "outputs": [],
      "stateMutability": "nonpayable",
      "type": "function"
    },
    {
      "inputs": [],
      "name": "name",
      "outputs": [
        {
          "internalType": "string",
          "name": "",
          "type": "string"
        }
      ],
      "stateMutability": "view",
      "type": "function"
    },
    {
      "inputs": [],
      "name": "owner",
      "outputs": [
        {
          "internalType": "address",
          "name": "",
          "type": "address"
        }
      ],
      "stateMutability": "view",
      "type": "function"
    },
    {
      "inputs": [],
      "name": "renounceOwnership",
      "outputs": [],
      "stateMutability": "nonpayable",
      "type": "function"
    },
    {
      "inputs": [],
      "name": "symbol",
      "outputs": [
        {
          "internalType": "string",
          "name": "",
          "type": "string"
        }
      ],
      "stateMutability": "view",
      "type": "function"
    },
    {
      "inputs": [
        {
          "internalType": "address",
          "name": "_addr",
          "type": "address"
        }
      ],
      "name": "toggleAddress",
      "outputs": [],
      "stateMutability": "nonpayable",
      "type": "function"
    },
    {
      "inputs": [
        {
          "internalType": "address[]",
          "name": "addrs",
          "type": "address[]"
        }
      ],
      "name": "toggleAddresses",
      "outputs": [],
      "stateMutability": "nonpayable",
      "type": "function"
    },
    {
      "inputs": [],
      "name": "totalSupply",
      "outputs": [
        {
          "internalType": "uint256",
          "name": "",
          "type": "uint256"
        }
      ],
      "stateMutability": "view",
      "type": "function"
    },
    {
      "inputs": [
        {
          "internalType": "address",
          "name": "recipient",
          "type": "address"
        },
        {
          "internalType": "uint256",
          "name": "amount",
          "type": "uint256"
        }
      ],
      "name": "transfer",
      "outputs": [
        {
          "internalType": "bool",
          "name": "",
          "type": "bool"
        }
      ],
      "stateMutability": "nonpayable",
      "type": "function"
    },
    {
      "inputs": [
        {
          "internalType": "address",
          "name": "sender",
          "type": "address"
        },
        {
          "internalType": "address",
          "name": "recipient",
          "type": "address"
        },
        {
          "internalType": "uint256",
          "name": "amount",
          "type": "uint256"
        }
      ],
      "name": "transferFrom",
      "outputs": [
        {
          "internalType": "bool",
          "name": "",
          "type": "bool"
        }
      ],
      "stateMutability": "nonpayable",
      "type": "function"
    },
    {
      "inputs": [
        {
          "internalType": "address",
          "name": "newOwner",
          "type": "address"
        }
      ],
      "name": "transferOwnership",
      "outputs": [],
      "stateMutability": "nonpayable",
      "type": "function"
    },
    {
      "inputs": [
        {
          "internalType": "address",
          "name": "",
          "type": "address"
        }
      ],
      "name": "whitelist",
      "outputs": [
        {
          "internalType": "bool",
          "name": "",
          "type": "bool"
        }
      ],
      "stateMutability": "view",
      "type": "function"
    }
  ],
  "bytecode": "0x60806040523480156200001157600080fd5b506040518060400160405280601281526020017f5269736b20486172626f72205469636b657400000000000000000000000000008152506040518060400160405280600481526020017f5278485400000000000000000000000000000000000000000000000000000000815250816003908051906020019062000096929190620004c5565b508060049080519060200190620000af929190620004c5565b5050506000620000c46200028d60201b60201c565b905080600560006101000a81548173ffffffffffffffffffffffffffffffffffffffff021916908373ffffffffffffffffffffffffffffffffffffffff1602179055508073ffffffffffffffffffffffffffffffffffffffff16600073ffffffffffffffffffffffffffffffffffffffff167f8be0079c531659141344cd1fd0a4f28419497f9722a3daafe3b4186f6b6457e060405160405180910390a3506001600660003373ffffffffffffffffffffffffffffffffffffffff1673ffffffffffffffffffffffffffffffffffffffff16815260200190815260200160002060006101000a81548160ff0219169083151502179055506001600660008073ffffffffffffffffffffffffffffffffffffffff1673ffffffffffffffffffffffffffffffffffffffff16815260200190815260200160002060006101000a81548160ff0219169083151502179055506001600660003073ffffffffffffffffffffffffffffffffffffffff1673ffffffffffffffffffffffffffffffffffffffff16815260200190815260200160002060006101000a81548160ff0219169083151502179055506200028733691fc3842bd1f071c000006200029560201b60201c565b6200079d565b600033905090565b600073ffffffffffffffffffffffffffffffffffffffff168273ffffffffffffffffffffffffffffffffffffffff16141562000308576040517f08c379a0000000000000000000000000000000000000000000000000000000008152600401620002ff9062000652565b60405180910390fd5b6200031c60008383620003fa60201b60201c565b8060026000828254620003309190620006a2565b92505081905550806000808473ffffffffffffffffffffffffffffffffffffffff1673ffffffffffffffffffffffffffffffffffffffff1681526020019081526020016000206000828254620003879190620006a2565b925050819055508173ffffffffffffffffffffffffffffffffffffffff16600073ffffffffffffffffffffffffffffffffffffffff167fddf252ad1be2c89b69c2b068fc378daa952ba7f163c4a11628f55a4df523b3ef83604051620003ee919062000674565b60405180910390a35050565b620004128383836200046a60201b620010161760201c565b62000423836200046f60201b60201c565b62000465576040517f08c379a00000000000000000000000000000000000000000000000000000000081526004016200045c9062000630565b60405180910390fd5b505050565b505050565b6000600660008373ffffffffffffffffffffffffffffffffffffffff1673ffffffffffffffffffffffffffffffffffffffff16815260200190815260200160002060009054906101000a900460ff169050919050565b828054620004d39062000709565b90600052602060002090601f016020900481019282620004f7576000855562000543565b82601f106200051257805160ff191683800117855562000543565b8280016001018555821562000543579182015b828111156200054257825182559160200191906001019062000525565b5b50905062000552919062000556565b5090565b5b808211156200057157600081600090555060010162000557565b5090565b60006200058460288362000691565b91507f455243323057697468536166655472616e736665723a20696e76616c6964207260008301527f6563697069656e740000000000000000000000000000000000000000000000006020830152604082019050919050565b6000620005ec601f8362000691565b91507f45524332303a206d696e7420746f20746865207a65726f2061646472657373006000830152602082019050919050565b6200062a81620006ff565b82525050565b600060208201905081810360008301526200064b8162000575565b9050919050565b600060208201905081810360008301526200066d81620005dd565b9050919050565b60006020820190506200068b60008301846200061f565b92915050565b600082825260208201905092915050565b6000620006af82620006ff565b9150620006bc83620006ff565b9250827fffffffffffffffffffffffffffffffffffffffffffffffffffffffffffffffff03821115620006f457620006f36200073f565b5b828201905092915050565b6000819050919050565b600060028204905060018216806200072257607f821691505b602082108114156200073957620007386200076e565b5b50919050565b7f4e487b7100000000000000000000000000000000000000000000000000000000600052601160045260246000fd5b7f4e487b7100000000000000000000000000000000000000000000000000000000600052602260045260246000fd5b61257080620007ad6000396000f3fe608060405234801561001057600080fd5b506004361061012c5760003560e01c80637a7fe438116100ad578063a457c2d711610071578063a457c2d714610331578063a7890e4e14610361578063a9059cbb1461037d578063dd62ed3e146103ad578063f2fde38b146103dd5761012c565b80637a7fe4381461028d5780638da5cb5b146102a957806395d89b41146102c75780639b19251a146102e5578063a0712d68146103155761012c565b806339509351116100f457806339509351146101eb57806342966c681461021b57806370a0823114610237578063715018a61461026757806379cc6790146102715761012c565b806306fdde0314610131578063095ea7b31461014f57806318160ddd1461017f57806323b872dd1461019d578063313ce567146101cd575b600080fd5b6101396103f9565b6040516101469190612050565b60405180910390f35b610169600480360381019061016491906119b7565b61048b565b6040516101769190612035565b60405180910390f35b6101876104a9565b6040516101949190612232565b60405180910390f35b6101b760048036038101906101b29190611968565b6104b3565b6040516101c49190612035565b60405180910390f35b6101d56105b4565b6040516101e2919061224d565b60405180910390f35b610205600480360381019061020091906119b7565b6105bd565b6040516102129190612035565b60405180910390f35b61023560048036038101906102309190611a34565b610669565b005b610251600480360381019061024c9190611903565b61067d565b60405161025e9190612232565b60405180910390f35b61026f6106c5565b005b61028b600480360381019061028691906119b7565b610802565b005b6102a760048036038101906102a29190611903565b610886565b005b6102b16109a9565b6040516102be919061201a565b60405180910390f35b6102cf6109d3565b6040516102dc9190612050565b60405180910390f35b6102ff60048036038101906102fa9190611903565b610a65565b60405161030c9190612035565b60405180910390f35b61032f600480360381019061032a9190611a34565b610a85565b005b61034b600480360381019061034691906119b7565b610b0e565b6040516103589190612035565b60405180910390f35b61037b600480360381019061037691906119f3565b610c02565b005b610397600480360381019061039291906119b7565b610dc5565b6040516103a49190612035565b60405180910390f35b6103c760048036038101906103c2919061192c565b610de3565b6040516103d49190612232565b60405180910390f35b6103f760048036038101906103f29190611903565b610e6a565b005b606060038054610408906123f3565b80601f0160208091040260200160405190810160405280929190818152602001828054610434906123f3565b80156104815780601f1061045657610100808354040283529160200191610481565b820191906000526020600020905b81548152906001019060200180831161046457829003601f168201915b5050505050905090565b600061049f61049861101b565b8484611023565b6001905092915050565b6000600254905090565b60006104c08484846111ee565b6000600160008673ffffffffffffffffffffffffffffffffffffffff1673ffffffffffffffffffffffffffffffffffffffff168152602001908152602001600020600061050b61101b565b73ffffffffffffffffffffffffffffffffffffffff1673ffffffffffffffffffffffffffffffffffffffff1681526020019081526020016000205490508281101561058b576040517f08c379a000000000000000000000000000000000000000000000000000000000815260040161058290612112565b60405180910390fd5b6105a88561059761101b565b85846105a39190612337565b611023565b60019150509392505050565b60006012905090565b600061065f6105ca61101b565b8484600160006105d861101b565b73ffffffffffffffffffffffffffffffffffffffff1673ffffffffffffffffffffffffffffffffffffffff16815260200190815260200160002060008873ffffffffffffffffffffffffffffffffffffffff1673ffffffffffffffffffffffffffffffffffffffff1681526020019081526020016000205461065a91906122e1565b611023565b6001905092915050565b61067a61067461101b565b8261146d565b50565b60008060008373ffffffffffffffffffffffffffffffffffffffff1673ffffffffffffffffffffffffffffffffffffffff168152602001908152602001600020549050919050565b6106cd61101b565b73ffffffffffffffffffffffffffffffffffffffff166106eb6109a9565b73ffffffffffffffffffffffffffffffffffffffff1614610741576040517f08c379a000000000000000000000000000000000000000000000000000000000815260040161073890612132565b60405180910390fd5b600073ffffffffffffffffffffffffffffffffffffffff16600560009054906101000a900473ffffffffffffffffffffffffffffffffffffffff1673ffffffffffffffffffffffffffffffffffffffff167f8be0079c531659141344cd1fd0a4f28419497f9722a3daafe3b4186f6b6457e060405160405180910390a36000600560006101000a81548173ffffffffffffffffffffffffffffffffffffffff021916908373ffffffffffffffffffffffffffffffffffffffff160217905550565b60006108158361081061101b565b610de3565b90508181101561085a576040517f08c379a000000000000000000000000000000000000000000000000000000000815260040161085190612152565b60405180910390fd5b6108778361086661101b565b84846108729190612337565b611023565b610881838361146d565b505050565b61088e61101b565b73ffffffffffffffffffffffffffffffffffffffff166108ac6109a9565b73ffffffffffffffffffffffffffffffffffffffff1614610902576040517f08c379a00000000000000000000000000000000000000000000000000000000081526004016108f990612132565b60405180910390fd5b600660008273ffffffffffffffffffffffffffffffffffffffff1673ffffffffffffffffffffffffffffffffffffffff16815260200190815260200160002060009054906101000a900460ff1615600660008373ffffffffffffffffffffffffffffffffffffffff1673ffffffffffffffffffffffffffffffffffffffff16815260200190815260200160002060006101000a81548160ff02191690831515021790555050565b6000600560009054906101000a900473ffffffffffffffffffffffffffffffffffffffff16905090565b6060600480546109e2906123f3565b80601f0160208091040260200160405190810160405280929190818152602001828054610a0e906123f3565b8015610a5b5780601f10610a3057610100808354040283529160200191610a5b565b820191906000526020600020905b815481529060010190602001808311610a3e57829003601f168201915b5050505050905090565b60066020528060005260406000206000915054906101000a900460ff1681565b610a8d61101b565b73ffffffffffffffffffffffffffffffffffffffff16610aab6109a9565b73ffffffffffffffffffffffffffffffffffffffff1614610b01576040517f08c379a0000000000000000000000000000000000000000000000000000000008152600401610af890612132565b60405180910390fd5b610b0b3382611641565b50565b60008060016000610b1d61101b565b73ffffffffffffffffffffffffffffffffffffffff1673ffffffffffffffffffffffffffffffffffffffff16815260200190815260200160002060008573ffffffffffffffffffffffffffffffffffffffff1673ffffffffffffffffffffffffffffffffffffffff16815260200190815260200160002054905082811015610bda576040517f08c379a0000000000000000000000000000000000000000000000000000000008152600401610bd1906121f2565b60405180910390fd5b610bf7610be561101b565b858584610bf29190612337565b611023565b600191505092915050565b610c0a61101b565b73ffffffffffffffffffffffffffffffffffffffff16610c286109a9565b73ffffffffffffffffffffffffffffffffffffffff1614610c7e576040517f08c379a0000000000000000000000000000000000000000000000000000000008152600401610c7590612132565b60405180910390fd5b60005b8151811015610dc15760066000838381518110610cc7577f4e487b7100000000000000000000000000000000000000000000000000000000600052603260045260246000fd5b602002602001015173ffffffffffffffffffffffffffffffffffffffff1673ffffffffffffffffffffffffffffffffffffffff16815260200190815260200160002060009054906101000a900460ff161560066000848481518110610d55577f4e487b7100000000000000000000000000000000000000000000000000000000600052603260045260246000fd5b602002602001015173ffffffffffffffffffffffffffffffffffffffff1673ffffffffffffffffffffffffffffffffffffffff16815260200190815260200160002060006101000a81548160ff0219169083151502179055508080610db990612425565b915050610c81565b5050565b6000610dd9610dd261101b565b84846111ee565b6001905092915050565b6000600160008473ffffffffffffffffffffffffffffffffffffffff1673ffffffffffffffffffffffffffffffffffffffff16815260200190815260200160002060008373ffffffffffffffffffffffffffffffffffffffff1673ffffffffffffffffffffffffffffffffffffffff16815260200190815260200160002054905092915050565b610e7261101b565b73ffffffffffffffffffffffffffffffffffffffff16610e906109a9565b73ffffffffffffffffffffffffffffffffffffffff1614610ee6576040517f08c379a0000000000000000000000000000000000000000000000000000000008152600401610edd90612132565b60405180910390fd5b600073ffffffffffffffffffffffffffffffffffffffff168173ffffffffffffffffffffffffffffffffffffffff161415610f56576040517f08c379a0000000000000000000000000000000000000000000000000000000008152600401610f4d906120b2565b60405180910390fd5b8073ffffffffffffffffffffffffffffffffffffffff16600560009054906101000a900473ffffffffffffffffffffffffffffffffffffffff1673ffffffffffffffffffffffffffffffffffffffff167f8be0079c531659141344cd1fd0a4f28419497f9722a3daafe3b4186f6b6457e060405160405180910390a380600560006101000a81548173ffffffffffffffffffffffffffffffffffffffff021916908373ffffffffffffffffffffffffffffffffffffffff16021790555050565b505050565b600033905090565b600073ffffffffffffffffffffffffffffffffffffffff168373ffffffffffffffffffffffffffffffffffffffff161415611093576040517f08c379a000000000000000000000000000000000000000000000000000000000815260040161108a906121b2565b60405180910390fd5b600073ffffffffffffffffffffffffffffffffffffffff168273ffffffffffffffffffffffffffffffffffffffff161415611103576040517f08c379a00000000000000000000000000000000000000000000000000000000081526004016110fa906120d2565b60405180910390fd5b80600160008573ffffffffffffffffffffffffffffffffffffffff1673ffffffffffffffffffffffffffffffffffffffff16815260200190815260200160002060008473ffffffffffffffffffffffffffffffffffffffff1673ffffffffffffffffffffffffffffffffffffffff168152602001908152602001600020819055508173ffffffffffffffffffffffffffffffffffffffff168373ffffffffffffffffffffffffffffffffffffffff167f8c5be1e5ebec7d5bd14f71427d1e84f3dd0314c0f7b2291e5b200ac8c7c3b925836040516111e19190612232565b60405180910390a3505050565b600073ffffffffffffffffffffffffffffffffffffffff168373ffffffffffffffffffffffffffffffffffffffff16141561125e576040517f08c379a000000000000000000000000000000000000000000000000000000000815260040161125590612192565b60405180910390fd5b600073ffffffffffffffffffffffffffffffffffffffff168273ffffffffffffffffffffffffffffffffffffffff1614156112ce576040517f08c379a00000000000000000000000000000000000000000000000000000000081526004016112c590612072565b60405180910390fd5b6112d9838383611795565b60008060008573ffffffffffffffffffffffffffffffffffffffff1673ffffffffffffffffffffffffffffffffffffffff1681526020019081526020016000205490508181101561135f576040517f08c379a0000000000000000000000000000000000000000000000000000000008152600401611356906120f2565b60405180910390fd5b818161136b9190612337565b6000808673ffffffffffffffffffffffffffffffffffffffff1673ffffffffffffffffffffffffffffffffffffffff16815260200190815260200160002081905550816000808573ffffffffffffffffffffffffffffffffffffffff1673ffffffffffffffffffffffffffffffffffffffff16815260200190815260200160002060008282546113fb91906122e1565b925050819055508273ffffffffffffffffffffffffffffffffffffffff168473ffffffffffffffffffffffffffffffffffffffff167fddf252ad1be2c89b69c2b068fc378daa952ba7f163c4a11628f55a4df523b3ef8460405161145f9190612232565b60405180910390a350505050565b600073ffffffffffffffffffffffffffffffffffffffff168273ffffffffffffffffffffffffffffffffffffffff1614156114dd576040517f08c379a00000000000000000000000000000000000000000000000000000000081526004016114d490612172565b60405180910390fd5b6114e982600083611795565b60008060008473ffffffffffffffffffffffffffffffffffffffff1673ffffffffffffffffffffffffffffffffffffffff1681526020019081526020016000205490508181101561156f576040517f08c379a000000000000000000000000000000000000000000000000000000000815260040161156690612092565b60405180910390fd5b818161157b9190612337565b6000808573ffffffffffffffffffffffffffffffffffffffff1673ffffffffffffffffffffffffffffffffffffffff1681526020019081526020016000208190555081600260008282546115cf9190612337565b92505081905550600073ffffffffffffffffffffffffffffffffffffffff168373ffffffffffffffffffffffffffffffffffffffff167fddf252ad1be2c89b69c2b068fc378daa952ba7f163c4a11628f55a4df523b3ef846040516116349190612232565b60405180910390a3505050565b600073ffffffffffffffffffffffffffffffffffffffff168273ffffffffffffffffffffffffffffffffffffffff1614156116b1576040517f08c379a00000000000000000000000000000000000000000000000000000000081526004016116a890612212565b60405180910390fd5b6116bd60008383611795565b80600260008282546116cf91906122e1565b92505081905550806000808473ffffffffffffffffffffffffffffffffffffffff1673ffffffffffffffffffffffffffffffffffffffff168152602001908152602001600020600082825461172491906122e1565b925050819055508173ffffffffffffffffffffffffffffffffffffffff16600073ffffffffffffffffffffffffffffffffffffffff167fddf252ad1be2c89b69c2b068fc378daa952ba7f163c4a11628f55a4df523b3ef836040516117899190612232565b60405180910390a35050565b6117a0838383611016565b6117a9836117ed565b6117e8576040517f08c379a00000000000000000000000000000000000000000000000000000000081526004016117df906121d2565b60405180910390fd5b505050565b6000600660008373ffffffffffffffffffffffffffffffffffffffff1673ffffffffffffffffffffffffffffffffffffffff16815260200190815260200160002060009054906101000a900460ff169050919050565b600061185661185184612299565b612268565b9050808382526020820190508285602086028201111561187557600080fd5b60005b858110156118a5578161188b88826118af565b845260208401935060208301925050600181019050611878565b5050509392505050565b6000813590506118be8161250c565b92915050565b600082601f8301126118d557600080fd5b81356118e5848260208601611843565b91505092915050565b6000813590506118fd81612523565b92915050565b60006020828403121561191557600080fd5b6000611923848285016118af565b91505092915050565b6000806040838503121561193f57600080fd5b600061194d858286016118af565b925050602061195e858286016118af565b9150509250929050565b60008060006060848603121561197d57600080fd5b600061198b868287016118af565b935050602061199c868287016118af565b92505060406119ad868287016118ee565b9150509250925092565b600080604083850312156119ca57600080fd5b60006119d8858286016118af565b92505060206119e9858286016118ee565b9150509250929050565b600060208284031215611a0557600080fd5b600082013567ffffffffffffffff811115611a1f57600080fd5b611a2b848285016118c4565b91505092915050565b600060208284031215611a4657600080fd5b6000611a54848285016118ee565b91505092915050565b611a668161236b565b82525050565b611a758161237d565b82525050565b6000611a86826122c5565b611a9081856122d0565b9350611aa08185602086016123c0565b611aa9816124fb565b840191505092915050565b6000611ac16023836122d0565b91507f45524332303a207472616e7366657220746f20746865207a65726f206164647260008301527f65737300000000000000000000000000000000000000000000000000000000006020830152604082019050919050565b6000611b276022836122d0565b91507f45524332303a206275726e20616d6f756e7420657863656564732062616c616e60008301527f63650000000000000000000000000000000000000000000000000000000000006020830152604082019050919050565b6000611b8d6026836122d0565b91507f4f776e61626c653a206e6577206f776e657220697320746865207a65726f206160008301527f64647265737300000000000000000000000000000000000000000000000000006020830152604082019050919050565b6000611bf36022836122d0565b91507f45524332303a20617070726f766520746f20746865207a65726f20616464726560008301527f73730000000000000000000000000000000000000000000000000000000000006020830152604082019050919050565b6000611c596026836122d0565b91507f45524332303a207472616e7366657220616d6f756e742065786365656473206260008301527f616c616e636500000000000000000000000000000000000000000000000000006020830152604082019050919050565b6000611cbf6028836122d0565b91507f45524332303a207472616e7366657220616d6f756e742065786365656473206160008301527f6c6c6f77616e63650000000000000000000000000000000000000000000000006020830152604082019050919050565b6000611d256020836122d0565b91507f4f776e61626c653a2063616c6c6572206973206e6f7420746865206f776e65726000830152602082019050919050565b6000611d656024836122d0565b91507f45524332303a206275726e20616d6f756e74206578636565647320616c6c6f7760008301527f616e6365000000000000000000000000000000000000000000000000000000006020830152604082019050919050565b6000611dcb6021836122d0565b91507f45524332303a206275726e2066726f6d20746865207a65726f2061646472657360008301527f73000000000000000000000000000000000000000000000000000000000000006020830152604082019050919050565b6000611e316025836122d0565b91507f45524332303a207472616e736665722066726f6d20746865207a65726f20616460008301527f64726573730000000000000000000000000000000000000000000000000000006020830152604082019050919050565b6000611e976024836122d0565b91507f45524332303a20617070726f76652066726f6d20746865207a65726f2061646460008301527f72657373000000000000000000000000000000000000000000000000000000006020830152604082019050919050565b6000611efd6028836122d0565b91507f455243323057697468536166655472616e736665723a20696e76616c6964207260008301527f6563697069656e740000000000000000000000000000000000000000000000006020830152604082019050919050565b6000611f636025836122d0565b91507f45524332303a2064656372656173656420616c6c6f77616e63652062656c6f7760008301527f207a65726f0000000000000000000000000000000000000000000000000000006020830152604082019050919050565b6000611fc9601f836122d0565b91507f45524332303a206d696e7420746f20746865207a65726f2061646472657373006000830152602082019050919050565b612005816123a9565b82525050565b612014816123b3565b82525050565b600060208201905061202f6000830184611a5d565b92915050565b600060208201905061204a6000830184611a6c565b92915050565b6000602082019050818103600083015261206a8184611a7b565b905092915050565b6000602082019050818103600083015261208b81611ab4565b9050919050565b600060208201905081810360008301526120ab81611b1a565b9050919050565b600060208201905081810360008301526120cb81611b80565b9050919050565b600060208201905081810360008301526120eb81611be6565b9050919050565b6000602082019050818103600083015261210b81611c4c565b9050919050565b6000602082019050818103600083015261212b81611cb2565b9050919050565b6000602082019050818103600083015261214b81611d18565b9050919050565b6000602082019050818103600083015261216b81611d58565b9050919050565b6000602082019050818103600083015261218b81611dbe565b9050919050565b600060208201905081810360008301526121ab81611e24565b9050919050565b600060208201905081810360008301526121cb81611e8a565b9050919050565b600060208201905081810360008301526121eb81611ef0565b9050919050565b6000602082019050818103600083015261220b81611f56565b9050919050565b6000602082019050818103600083015261222b81611fbc565b9050919050565b60006020820190506122476000830184611ffc565b92915050565b6000602082019050612262600083018461200b565b92915050565b6000604051905081810181811067ffffffffffffffff8211171561228f5761228e6124cc565b5b8060405250919050565b600067ffffffffffffffff8211156122b4576122b36124cc565b5b602082029050602081019050919050565b600081519050919050565b600082825260208201905092915050565b60006122ec826123a9565b91506122f7836123a9565b9250827fffffffffffffffffffffffffffffffffffffffffffffffffffffffffffffffff0382111561232c5761232b61246e565b5b828201905092915050565b6000612342826123a9565b915061234d836123a9565b9250828210156123605761235f61246e565b5b828203905092915050565b600061237682612389565b9050919050565b60008115159050919050565b600073ffffffffffffffffffffffffffffffffffffffff82169050919050565b6000819050919050565b600060ff82169050919050565b60005b838110156123de5780820151818401526020810190506123c3565b838111156123ed576000848401525b50505050565b6000600282049050600182168061240b57607f821691505b6020821081141561241f5761241e61249d565b5b50919050565b6000612430826123a9565b91507fffffffffffffffffffffffffffffffffffffffffffffffffffffffffffffffff8214156124635761246261246e565b5b600182019050919050565b7f4e487b7100000000000000000000000000000000000000000000000000000000600052601160045260246000fd5b7f4e487b7100000000000000000000000000000000000000000000000000000000600052602260045260246000fd5b7f4e487b7100000000000000000000000000000000000000000000000000000000600052604160045260246000fd5b6000601f19601f8301169050919050565b6125158161236b565b811461252057600080fd5b50565b61252c816123a9565b811461253757600080fd5b5056fea2646970667358221220148c3baf01a50c60930fa78f3baf4c5e1561a2fb5adb32e3d98e0928e86d228464736f6c63430008000033",
  "linkReferences": {},
  "deployedLinkReferences": {}
}