{
  "_format": "hh-sol-artifact-1",
  "contractName": "MerkleDistributor",
  "sourceName": "contracts/MerkleDistributor.sol",
  "abi": [
    {
      "inputs": [
        {
          "internalType": "address",
          "name": "token_",
          "type": "address"
        },
        {
          "internalType": "bytes32",
          "name": "merkleRoot_",
          "type": "bytes32"
        }
      ],
      "stateMutability": "nonpayable",
      "type": "constructor"
    },
    {
      "anonymous": false,
      "inputs": [
        {
          "indexed": false,
          "internalType": "uint256",
          "name": "index",
          "type": "uint256"
        },
        {
          "indexed": false,
          "internalType": "address",
          "name": "account",
          "type": "address"
        },
        {
          "indexed": false,
          "internalType": "uint256",
          "name": "amount",
          "type": "uint256"
        }
      ],
      "name": "Claimed",
      "type": "event"
    },
    {
      "anonymous": false,
      "inputs": [
        {
          "indexed": true,
          "internalType": "address",
          "name": "previousOwner",
          "type": "address"
        },
        {
          "indexed": true,
          "internalType": "address",
          "name": "newOwner",
          "type": "address"
        }
      ],
      "name": "OwnershipTransferred",
      "type": "event"
    },
    {
      "inputs": [
        {
          "internalType": "uint256",
          "name": "index",
          "type": "uint256"
        },
        {
          "internalType": "address",
          "name": "account",
          "type": "address"
        },
        {
          "internalType": "uint256",
          "name": "amount",
          "type": "uint256"
        },
        {
          "internalType": "bytes32[]",
          "name": "merkleProof",
          "type": "bytes32[]"
        }
      ],
      "name": "claim",
      "outputs": [],
      "stateMutability": "nonpayable",
      "type": "function"
    },
    {
      "inputs": [
        {
          "internalType": "address",
          "name": "_address",
          "type": "address"
        }
      ],
      "name": "isWhitelisted",
      "outputs": [
        {
          "internalType": "bool",
          "name": "",
          "type": "bool"
        }
      ],
      "stateMutability": "view",
      "type": "function"
    },
    {
      "inputs": [],
      "name": "merkleRoot",
      "outputs": [
        {
          "internalType": "bytes32",
          "name": "",
          "type": "bytes32"
        }
      ],
      "stateMutability": "view",
      "type": "function"
    },
    {
      "inputs": [],
      "name": "owner",
      "outputs": [
        {
          "internalType": "address",
          "name": "",
          "type": "address"
        }
      ],
      "stateMutability": "view",
      "type": "function"
    },
    {
      "inputs": [],
      "name": "pullOutFunds",
      "outputs": [],
      "stateMutability": "nonpayable",
      "type": "function"
    },
    {
      "inputs": [],
      "name": "renounceOwnership",
      "outputs": [],
      "stateMutability": "nonpayable",
      "type": "function"
    },
    {
      "inputs": [
        {
          "internalType": "address",
          "name": "_addr",
          "type": "address"
        }
      ],
      "name": "toggleAddress",
      "outputs": [],
      "stateMutability": "nonpayable",
      "type": "function"
    },
    {
      "inputs": [
        {
          "internalType": "address[]",
          "name": "addrs",
          "type": "address[]"
        }
      ],
      "name": "toggleAddresses",
      "outputs": [],
      "stateMutability": "nonpayable",
      "type": "function"
    },
    {
      "inputs": [],
      "name": "token",
      "outputs": [
        {
          "internalType": "address",
          "name": "",
          "type": "address"
        }
      ],
      "stateMutability": "view",
      "type": "function"
    },
    {
      "inputs": [
        {
          "internalType": "address",
          "name": "newOwner",
          "type": "address"
        }
      ],
      "name": "transferOwnership",
      "outputs": [],
      "stateMutability": "nonpayable",
      "type": "function"
    }
  ],
  "bytecode": "0x60c06040523480156200001157600080fd5b50604051620018ba380380620018ba833981810160405281019062000037919062000164565b6000620000496200012e60201b60201c565b9050806000806101000a81548173ffffffffffffffffffffffffffffffffffffffff021916908373ffffffffffffffffffffffffffffffffffffffff1602179055508073ffffffffffffffffffffffffffffffffffffffff16600073ffffffffffffffffffffffffffffffffffffffff167f8be0079c531659141344cd1fd0a4f28419497f9722a3daafe3b4186f6b6457e060405160405180910390a3508173ffffffffffffffffffffffffffffffffffffffff1660808173ffffffffffffffffffffffffffffffffffffffff1660601b815250508060a08181525050505062000217565b600033905090565b6000815190506200014781620001e3565b92915050565b6000815190506200015e81620001fd565b92915050565b600080604083850312156200017857600080fd5b6000620001888582860162000136565b92505060206200019b858286016200014d565b9150509250929050565b6000620001b282620001c3565b9050919050565b6000819050919050565b600073ffffffffffffffffffffffffffffffffffffffff82169050919050565b620001ee81620001a5565b8114620001fa57600080fd5b50565b6200020881620001b9565b81146200021457600080fd5b50565b60805160601c60a05161165e6200025c60003960008181610270015261040e0152600081816102df015281816107630152818161080e0152610c54015261165e6000f3fe608060405234801561001057600080fd5b506004361061009e5760003560e01c80638d828fcc116100665780638d828fcc146101335780638da5cb5b1461013d578063a7890e4e1461015b578063f2fde38b14610177578063fc0c546a146101935761009e565b80632e7ba6ef146100a35780632eb4a7ab146100bf5780633af32abf146100dd578063715018a61461010d5780637a7fe43814610117575b600080fd5b6100bd60048036038101906100b89190610fa4565b6101b1565b005b6100c761040c565b6040516100d49190611345565b60405180910390f35b6100f760048036038101906100f29190610ee8565b610430565b604051610104919061132a565b60405180910390f35b610115610486565b005b610131600480360381019061012c9190610ee8565b6105c0565b005b61013b6106e3565b005b6101456108bd565b60405161015291906112e6565b60405180910390f35b61017560048036038101906101709190610f11565b6108e6565b005b610191600480360381019061018c9190610ee8565b610aa9565b005b61019b610c52565b6040516101a891906112e6565b60405180910390f35b6101ba84610430565b156101fa576040517f08c379a00000000000000000000000000000000000000000000000000000000081526004016101f190611380565b60405180910390fd5b6000858585604051602001610211939291906112a9565b604051602081830303815290604052805190602001209050610295838380806020026020016040519081016040528093929190818152602001838360200280828437600081840152601f19601f820116905080830192505050505050507f000000000000000000000000000000000000000000000000000000000000000083610c76565b6102d4576040517f08c379a00000000000000000000000000000000000000000000000000000000081526004016102cb906113a0565b60405180910390fd5b6102dd85610d52565b7f000000000000000000000000000000000000000000000000000000000000000073ffffffffffffffffffffffffffffffffffffffff1663a9059cbb86866040518363ffffffff1660e01b8152600401610338929190611301565b602060405180830381600087803b15801561035257600080fd5b505af1158015610366573d6000803e3d6000fd5b505050506040513d601f19601f8201168201806040525081019061038a9190610f52565b6103c9576040517f08c379a00000000000000000000000000000000000000000000000000000000081526004016103c0906113c0565b60405180910390fd5b7f4ec90e965519d92681267467f775ada5bd214aa92c0dc93d90a5e880ce9ed0268686866040516103fc93929190611400565b60405180910390a1505050505050565b7f000000000000000000000000000000000000000000000000000000000000000081565b6000600160008373ffffffffffffffffffffffffffffffffffffffff1673ffffffffffffffffffffffffffffffffffffffff16815260200190815260200160002060009054906101000a900460ff169050919050565b61048e610dac565b73ffffffffffffffffffffffffffffffffffffffff166104ac6108bd565b73ffffffffffffffffffffffffffffffffffffffff1614610502576040517f08c379a00000000000000000000000000000000000000000000000000000000081526004016104f9906113e0565b60405180910390fd5b600073ffffffffffffffffffffffffffffffffffffffff1660008054906101000a900473ffffffffffffffffffffffffffffffffffffffff1673ffffffffffffffffffffffffffffffffffffffff167f8be0079c531659141344cd1fd0a4f28419497f9722a3daafe3b4186f6b6457e060405160405180910390a360008060006101000a81548173ffffffffffffffffffffffffffffffffffffffff021916908373ffffffffffffffffffffffffffffffffffffffff160217905550565b6105c8610dac565b73ffffffffffffffffffffffffffffffffffffffff166105e66108bd565b73ffffffffffffffffffffffffffffffffffffffff161461063c576040517f08c379a0000000000000000000000000000000000000000000000000000000008152600401610633906113e0565b60405180910390fd5b600160008273ffffffffffffffffffffffffffffffffffffffff1673ffffffffffffffffffffffffffffffffffffffff16815260200190815260200160002060009054906101000a900460ff1615600160008373ffffffffffffffffffffffffffffffffffffffff1673ffffffffffffffffffffffffffffffffffffffff16815260200190815260200160002060006101000a81548160ff02191690831515021790555050565b6106eb610dac565b73ffffffffffffffffffffffffffffffffffffffff166107096108bd565b73ffffffffffffffffffffffffffffffffffffffff161461075f576040517f08c379a0000000000000000000000000000000000000000000000000000000008152600401610756906113e0565b60405180910390fd5b60007f000000000000000000000000000000000000000000000000000000000000000073ffffffffffffffffffffffffffffffffffffffff166370a08231306040518263ffffffff1660e01b81526004016107ba91906112e6565b60206040518083038186803b1580156107d257600080fd5b505afa1580156107e6573d6000803e3d6000fd5b505050506040513d601f19601f8201168201806040525081019061080a9190610f7b565b90507f000000000000000000000000000000000000000000000000000000000000000073ffffffffffffffffffffffffffffffffffffffff1663a9059cbb33836040518363ffffffff1660e01b8152600401610867929190611301565b602060405180830381600087803b15801561088157600080fd5b505af1158015610895573d6000803e3d6000fd5b505050506040513d601f19601f820116820180604052508101906108b99190610f52565b5050565b60008060009054906101000a900473ffffffffffffffffffffffffffffffffffffffff16905090565b6108ee610dac565b73ffffffffffffffffffffffffffffffffffffffff1661090c6108bd565b73ffffffffffffffffffffffffffffffffffffffff1614610962576040517f08c379a0000000000000000000000000000000000000000000000000000000008152600401610959906113e0565b60405180910390fd5b60005b8151811015610aa557600160008383815181106109ab577f4e487b7100000000000000000000000000000000000000000000000000000000600052603260045260246000fd5b602002602001015173ffffffffffffffffffffffffffffffffffffffff1673ffffffffffffffffffffffffffffffffffffffff16815260200190815260200160002060009054906101000a900460ff161560016000848481518110610a39577f4e487b7100000000000000000000000000000000000000000000000000000000600052603260045260246000fd5b602002602001015173ffffffffffffffffffffffffffffffffffffffff1673ffffffffffffffffffffffffffffffffffffffff16815260200190815260200160002060006101000a81548160ff0219169083151502179055508080610a9d906114f7565b915050610965565b5050565b610ab1610dac565b73ffffffffffffffffffffffffffffffffffffffff16610acf6108bd565b73ffffffffffffffffffffffffffffffffffffffff1614610b25576040517f08c379a0000000000000000000000000000000000000000000000000000000008152600401610b1c906113e0565b60405180910390fd5b600073ffffffffffffffffffffffffffffffffffffffff168173ffffffffffffffffffffffffffffffffffffffff161415610b95576040517f08c379a0000000000000000000000000000000000000000000000000000000008152600401610b8c90611360565b60405180910390fd5b8073ffffffffffffffffffffffffffffffffffffffff1660008054906101000a900473ffffffffffffffffffffffffffffffffffffffff1673ffffffffffffffffffffffffffffffffffffffff167f8be0079c531659141344cd1fd0a4f28419497f9722a3daafe3b4186f6b6457e060405160405180910390a3806000806101000a81548173ffffffffffffffffffffffffffffffffffffffff021916908373ffffffffffffffffffffffffffffffffffffffff16021790555050565b7f000000000000000000000000000000000000000000000000000000000000000081565b60008082905060005b8551811015610d44576000868281518110610cc3577f4e487b7100000000000000000000000000000000000000000000000000000000600052603260045260246000fd5b60200260200101519050808311610d04578281604051602001610ce792919061127d565b604051602081830303815290604052805190602001209250610d30565b8083604051602001610d1792919061127d565b6040516020818303038152906040528051906020012092505b508080610d3c906114f7565b915050610c7f565b508381149150509392505050565b60018060008373ffffffffffffffffffffffffffffffffffffffff1673ffffffffffffffffffffffffffffffffffffffff16815260200190815260200160002060006101000a81548160ff02191690831515021790555050565b600033905090565b6000610dc7610dc284611468565b611437565b90508083825260208201905082856020860282011115610de657600080fd5b60005b85811015610e165781610dfc8882610e20565b845260208401935060208301925050600181019050610de9565b5050509392505050565b600081359050610e2f816115e3565b92915050565b600082601f830112610e4657600080fd5b8135610e56848260208601610db4565b91505092915050565b60008083601f840112610e7157600080fd5b8235905067ffffffffffffffff811115610e8a57600080fd5b602083019150836020820283011115610ea257600080fd5b9250929050565b600081519050610eb8816115fa565b92915050565b600081359050610ecd81611611565b92915050565b600081519050610ee281611611565b92915050565b600060208284031215610efa57600080fd5b6000610f0884828501610e20565b91505092915050565b600060208284031215610f2357600080fd5b600082013567ffffffffffffffff811115610f3d57600080fd5b610f4984828501610e35565b91505092915050565b600060208284031215610f6457600080fd5b6000610f7284828501610ea9565b91505092915050565b600060208284031215610f8d57600080fd5b6000610f9b84828501610ed3565b91505092915050565b600080600080600060808688031215610fbc57600080fd5b6000610fca88828901610ebe565b9550506020610fdb88828901610e20565b9450506040610fec88828901610ebe565b935050606086013567ffffffffffffffff81111561100957600080fd5b61101588828901610e5f565b92509250509295509295909350565b61102d816114a5565b82525050565b61104461103f826114a5565b611540565b82525050565b611053816114b7565b82525050565b611062816114c3565b82525050565b611079611074826114c3565b611552565b82525050565b600061108c602683611494565b91507f4f776e61626c653a206e6577206f776e657220697320746865207a65726f206160008301527f64647265737300000000000000000000000000000000000000000000000000006020830152604082019050919050565b60006110f2602883611494565b91507f4d65726b6c654469737472696275746f723a2044726f7020616c72656164792060008301527f636c61696d65642e0000000000000000000000000000000000000000000000006020830152604082019050919050565b6000611158602183611494565b91507f4d65726b6c654469737472696275746f723a20496e76616c69642070726f6f6660008301527f2e000000000000000000000000000000000000000000000000000000000000006020830152604082019050919050565b60006111be602383611494565b91507f4d65726b6c654469737472696275746f723a205472616e73666572206661696c60008301527f65642e00000000000000000000000000000000000000000000000000000000006020830152604082019050919050565b6000611224602083611494565b91507f4f776e61626c653a2063616c6c6572206973206e6f7420746865206f776e65726000830152602082019050919050565b611260816114ed565b82525050565b611277611272826114ed565b61156e565b82525050565b60006112898285611068565b6020820191506112998284611068565b6020820191508190509392505050565b60006112b58286611266565b6020820191506112c58285611033565b6014820191506112d58284611266565b602082019150819050949350505050565b60006020820190506112fb6000830184611024565b92915050565b60006040820190506113166000830185611024565b6113236020830184611257565b9392505050565b600060208201905061133f600083018461104a565b92915050565b600060208201905061135a6000830184611059565b92915050565b600060208201905081810360008301526113798161107f565b9050919050565b60006020820190508181036000830152611399816110e5565b9050919050565b600060208201905081810360008301526113b98161114b565b9050919050565b600060208201905081810360008301526113d9816111b1565b9050919050565b600060208201905081810360008301526113f981611217565b9050919050565b60006060820190506114156000830186611257565b6114226020830185611024565b61142f6040830184611257565b949350505050565b6000604051905081810181811067ffffffffffffffff8211171561145e5761145d6115a7565b5b8060405250919050565b600067ffffffffffffffff821115611483576114826115a7565b5b602082029050602081019050919050565b600082825260208201905092915050565b60006114b0826114cd565b9050919050565b60008115159050919050565b6000819050919050565b600073ffffffffffffffffffffffffffffffffffffffff82169050919050565b6000819050919050565b6000611502826114ed565b91507fffffffffffffffffffffffffffffffffffffffffffffffffffffffffffffffff82141561153557611534611578565b5b600182019050919050565b600061154b8261155c565b9050919050565b6000819050919050565b6000611567826115d6565b9050919050565b6000819050919050565b7f4e487b7100000000000000000000000000000000000000000000000000000000600052601160045260246000fd5b7f4e487b7100000000000000000000000000000000000000000000000000000000600052604160045260246000fd5b60008160601b9050919050565b6115ec816114a5565b81146115f757600080fd5b50565b611603816114b7565b811461160e57600080fd5b50565b61161a816114ed565b811461162557600080fd5b5056fea2646970667358221220823b48f52d547d777720f47ecb34ee6be8c4280017aaf2be1dc8c07db4da4c1d64736f6c63430008000033",
  "linkReferences": {},
  "deployedLinkReferences": {}
}